{
  "_format": "hh-sol-artifact-1",
  "contractName": "TestERC20",
  "sourceName": "contracts/test/TestERC20.sol",
  "abi": [
    {
      "inputs": [
        {
          "internalType": "string",
          "name": "name_",
          "type": "string"
        },
        {
          "internalType": "string",
          "name": "symbol_",
          "type": "string"
        },
        {
          "internalType": "uint256",
          "name": "amountToMint",
          "type": "uint256"
        }
      ],
      "stateMutability": "nonpayable",
      "type": "constructor"
    },
    {
      "anonymous": false,
      "inputs": [
        {
          "indexed": true,
          "internalType": "address",
          "name": "owner",
          "type": "address"
        },
        {
          "indexed": true,
          "internalType": "address",
          "name": "spender",
          "type": "address"
        },
        {
          "indexed": false,
          "internalType": "uint256",
          "name": "value",
          "type": "uint256"
        }
      ],
      "name": "Approval",
      "type": "event"
    },
    {
      "anonymous": false,
      "inputs": [
        {
          "indexed": true,
          "internalType": "address",
          "name": "from",
          "type": "address"
        },
        {
          "indexed": true,
          "internalType": "address",
          "name": "to",
          "type": "address"
        },
        {
          "indexed": false,
          "internalType": "uint256",
          "name": "value",
          "type": "uint256"
        }
      ],
      "name": "Transfer",
      "type": "event"
    },
    {
      "inputs": [
        {
          "internalType": "address",
          "name": "owner",
          "type": "address"
        },
        {
          "internalType": "address",
          "name": "spender",
          "type": "address"
        }
      ],
      "name": "allowance",
      "outputs": [
        {
          "internalType": "uint256",
          "name": "",
          "type": "uint256"
        }
      ],
      "stateMutability": "view",
      "type": "function"
    },
    {
      "inputs": [
        {
          "internalType": "address",
          "name": "spender",
          "type": "address"
        },
        {
          "internalType": "uint256",
          "name": "amount",
          "type": "uint256"
        }
      ],
      "name": "approve",
      "outputs": [
        {
          "internalType": "bool",
          "name": "",
          "type": "bool"
        }
      ],
      "stateMutability": "nonpayable",
      "type": "function"
    },
    {
      "inputs": [
        {
          "internalType": "address",
          "name": "account",
          "type": "address"
        }
      ],
      "name": "balanceOf",
      "outputs": [
        {
          "internalType": "uint256",
          "name": "",
          "type": "uint256"
        }
      ],
      "stateMutability": "view",
      "type": "function"
    },
    {
      "inputs": [],
      "name": "decimals",
      "outputs": [
        {
          "internalType": "uint8",
          "name": "",
          "type": "uint8"
        }
      ],
      "stateMutability": "view",
      "type": "function"
    },
    {
      "inputs": [
        {
          "internalType": "address",
          "name": "spender",
          "type": "address"
        },
        {
          "internalType": "uint256",
          "name": "subtractedValue",
          "type": "uint256"
        }
      ],
      "name": "decreaseAllowance",
      "outputs": [
        {
          "internalType": "bool",
          "name": "",
          "type": "bool"
        }
      ],
      "stateMutability": "nonpayable",
      "type": "function"
    },
    {
      "inputs": [
        {
          "internalType": "address",
          "name": "spender",
          "type": "address"
        },
        {
          "internalType": "uint256",
          "name": "addedValue",
          "type": "uint256"
        }
      ],
      "name": "increaseAllowance",
      "outputs": [
        {
          "internalType": "bool",
          "name": "",
          "type": "bool"
        }
      ],
      "stateMutability": "nonpayable",
      "type": "function"
    },
    {
      "inputs": [],
      "name": "name",
      "outputs": [
        {
          "internalType": "string",
          "name": "",
          "type": "string"
        }
      ],
      "stateMutability": "view",
      "type": "function"
    },
    {
      "inputs": [
        {
          "internalType": "address",
          "name": "to",
          "type": "address"
        },
        {
          "internalType": "uint256",
          "name": "amount",
          "type": "uint256"
        }
      ],
      "name": "setBalance",
      "outputs": [],
      "stateMutability": "nonpayable",
      "type": "function"
    },
    {
      "inputs": [],
      "name": "symbol",
      "outputs": [
        {
          "internalType": "string",
          "name": "",
          "type": "string"
        }
      ],
      "stateMutability": "view",
      "type": "function"
    },
    {
      "inputs": [],
      "name": "totalSupply",
      "outputs": [
        {
          "internalType": "uint256",
          "name": "",
          "type": "uint256"
        }
      ],
      "stateMutability": "view",
      "type": "function"
    },
    {
      "inputs": [
        {
          "internalType": "address",
          "name": "recipient",
          "type": "address"
        },
        {
          "internalType": "uint256",
          "name": "amount",
          "type": "uint256"
        }
      ],
      "name": "transfer",
      "outputs": [
        {
          "internalType": "bool",
          "name": "",
          "type": "bool"
        }
      ],
      "stateMutability": "nonpayable",
      "type": "function"
    },
    {
      "inputs": [
        {
          "internalType": "address",
          "name": "sender",
          "type": "address"
        },
        {
          "internalType": "address",
          "name": "recipient",
          "type": "address"
        },
        {
          "internalType": "uint256",
          "name": "amount",
          "type": "uint256"
        }
      ],
      "name": "transferFrom",
      "outputs": [
        {
          "internalType": "bool",
          "name": "",
          "type": "bool"
        }
      ],
      "stateMutability": "nonpayable",
      "type": "function"
    }
  ],
  "bytecode": "0x60806040523480156200001157600080fd5b506040516200142738038062001427833981810160405260608110156200003757600080fd5b81019080805160405193929190846401000000008211156200005857600080fd5b9083019060208201858111156200006e57600080fd5b82516401000000008111828201881017156200008957600080fd5b82525081516020918201929091019080838360005b83811015620000b85781810151838201526020016200009e565b50505050905090810190601f168015620000e65780820380516001836020036101000a031916815260200191505b50604052602001805160405193929190846401000000008211156200010a57600080fd5b9083019060208201858111156200012057600080fd5b82516401000000008111828201881017156200013b57600080fd5b82525081516020918201929091019080838360005b838110156200016a57818101518382015260200162000150565b50505050905090810190601f168015620001985780820380516001836020036101000a031916815260200191505b5060405260209081015185519093508592508491620001bd91600391850190620005e3565b508051620001d3906004906020840190620005e3565b50506005805460ff1916601217905550620001f833826001600160e01b036200020116565b50505062000688565b600062000217836001600160e01b036200026416565b9050818110156200023f5762000239838284036001600160e01b036200027f16565b6200025f565b818111156200025f576200025f838383036001600160e01b036200038616565b505050565b6001600160a01b031660009081526020819052604090205490565b6001600160a01b038216620002db576040805162461bcd60e51b815260206004820152601f60248201527f45524332303a206d696e7420746f20746865207a65726f206164647265737300604482015290519081900360640190fd5b620002f2600083836001600160e01b036200025f16565b6200030e816002546200049c60201b6200061d1790919060201c565b6002556001600160a01b03821660009081526020818152604090912054620003419183906200061d6200049c821b17901c565b6001600160a01b038316600081815260208181526040808320949094558351858152935192939192600080516020620013e68339815191529281900390910190a35050565b6001600160a01b038216620003cd5760405162461bcd60e51b8152600401808060200182810382526021815260200180620014066021913960400191505060405180910390fd5b620003e4826000836001600160e01b036200025f16565b6200042f81604051806060016040528060228152602001620013c4602291396001600160a01b038516600090815260208181526040909120549291906200067e620004fe821b17901c565b6001600160a01b03831660009081526020818152604090912091909155600254620004659183906200071562000599821b17901c565b6002556040805182815290516000916001600160a01b03851691600080516020620013e68339815191529181900360200190a35050565b600082820183811015620004f7576040805162461bcd60e51b815260206004820152601b60248201527f536166654d6174683a206164646974696f6e206f766572666c6f770000000000604482015290519081900360640190fd5b9392505050565b60008184841115620005915760405162461bcd60e51b81526004018080602001828103825283818151815260200191508051906020019080838360005b83811015620005555781810151838201526020016200053b565b50505050905090810190601f168015620005835780820380516001836020036101000a031916815260200191505b509250505060405180910390fd5b505050900390565b6000620004f783836040518060400160405280601e81526020017f536166654d6174683a207375627472616374696f6e206f766572666c6f770000815250620004fe60201b60201c565b828054600181600116156101000203166002900490600052602060002090601f016020900481019282601f106200062657805160ff191683800117855562000656565b8280016001018555821562000656579182015b828111156200065657825182559160200191906001019062000639565b506200066492915062000668565b5090565b6200068591905b808211156200066457600081556001016200066f565b90565b610d2c80620006986000396000f3fe608060405234801561001057600080fd5b50600436106100d45760003560e01c806370a0823111610081578063a9059cbb1161005b578063a9059cbb1461028a578063dd62ed3e146102b6578063e30443bc146102e4576100d4565b806370a082311461023057806395d89b4114610256578063a457c2d71461025e576100d4565b806323b872dd116100b257806323b872dd146101b0578063313ce567146101e65780633950935114610204576100d4565b806306fdde03146100d9578063095ea7b31461015657806318160ddd14610196575b600080fd5b6100e1610312565b6040805160208082528351818301528351919283929083019185019080838360005b8381101561011b578181015183820152602001610103565b50505050905090810190601f1680156101485780820380516001836020036101000a031916815260200191505b509250505060405180910390f35b6101826004803603604081101561016c57600080fd5b506001600160a01b0381351690602001356103a8565b604080519115158252519081900360200190f35b61019e6103c5565b60408051918252519081900360200190f35b610182600480360360608110156101c657600080fd5b506001600160a01b038135811691602081013590911690604001356103cb565b6101ee610458565b6040805160ff9092168252519081900360200190f35b6101826004803603604081101561021a57600080fd5b506001600160a01b038135169060200135610461565b61019e6004803603602081101561024657600080fd5b50356001600160a01b03166104b5565b6100e16104d0565b6101826004803603604081101561027457600080fd5b506001600160a01b038135169060200135610531565b610182600480360360408110156102a057600080fd5b506001600160a01b03813516906020013561059f565b61019e600480360360408110156102cc57600080fd5b506001600160a01b03813581169160200135166105b3565b610310600480360360408110156102fa57600080fd5b506001600160a01b0381351690602001356105de565b005b60038054604080516020601f600260001961010060018816150201909516949094049384018190048102820181019092528281526060939092909183018282801561039e5780601f106103735761010080835404028352916020019161039e565b820191906000526020600020905b81548152906001019060200180831161038157829003601f168201915b5050505050905090565b60006103bc6103b5610757565b848461075b565b50600192915050565b60025490565b60006103d8848484610847565b61044e846103e4610757565b61044985604051806060016040528060288152602001610c40602891396001600160a01b038a16600090815260016020526040812090610422610757565b6001600160a01b03168152602081019190915260400160002054919063ffffffff61067e16565b61075b565b5060019392505050565b60055460ff1690565b60006103bc61046e610757565b84610449856001600061047f610757565b6001600160a01b03908116825260208083019390935260409182016000908120918c16815292529020549063ffffffff61061d16565b6001600160a01b031660009081526020819052604090205490565b60048054604080516020601f600260001961010060018816150201909516949094049384018190048102820181019092528281526060939092909183018282801561039e5780601f106103735761010080835404028352916020019161039e565b60006103bc61053e610757565b8461044985604051806060016040528060258152602001610cd26025913960016000610568610757565b6001600160a01b03908116825260208083019390935260409182016000908120918d1681529252902054919063ffffffff61067e16565b60006103bc6105ac610757565b8484610847565b6001600160a01b03918216600090815260016020908152604080832093909416825291909152205490565b60006105e9836104b5565b905081811015610604576105ff838284036109ae565b610618565b818111156106185761061883838303610aaa565b505050565b600082820183811015610677576040805162461bcd60e51b815260206004820152601b60248201527f536166654d6174683a206164646974696f6e206f766572666c6f770000000000604482015290519081900360640190fd5b9392505050565b6000818484111561070d5760405162461bcd60e51b81526004018080602001828103825283818151815260200191508051906020019080838360005b838110156106d25781810151838201526020016106ba565b50505050905090810190601f1680156106ff5780820380516001836020036101000a031916815260200191505b509250505060405180910390fd5b505050900390565b600061067783836040518060400160405280601e81526020017f536166654d6174683a207375627472616374696f6e206f766572666c6f77000081525061067e565b3390565b6001600160a01b0383166107a05760405162461bcd60e51b8152600401808060200182810382526024815260200180610cae6024913960400191505060405180910390fd5b6001600160a01b0382166107e55760405162461bcd60e51b8152600401808060200182810382526022815260200180610bf86022913960400191505060405180910390fd5b6001600160a01b03808416600081815260016020908152604080832094871680845294825291829020859055815185815291517f8c5be1e5ebec7d5bd14f71427d1e84f3dd0314c0f7b2291e5b200ac8c7c3b9259281900390910190a3505050565b6001600160a01b03831661088c5760405162461bcd60e51b8152600401808060200182810382526025815260200180610c896025913960400191505060405180910390fd5b6001600160a01b0382166108d15760405162461bcd60e51b8152600401808060200182810382526023815260200180610bb36023913960400191505060405180910390fd5b6108dc838383610618565b61091f81604051806060016040528060268152602001610c1a602691396001600160a01b038616600090815260208190526040902054919063ffffffff61067e16565b6001600160a01b038085166000908152602081905260408082209390935590841681522054610954908263ffffffff61061d16565b6001600160a01b038084166000818152602081815260409182902094909455805185815290519193928716927fddf252ad1be2c89b69c2b068fc378daa952ba7f163c4a11628f55a4df523b3ef92918290030190a3505050565b6001600160a01b038216610a09576040805162461bcd60e51b815260206004820152601f60248201527f45524332303a206d696e7420746f20746865207a65726f206164647265737300604482015290519081900360640190fd5b610a1560008383610618565b600254610a28908263ffffffff61061d16565b6002556001600160a01b038216600090815260208190526040902054610a54908263ffffffff61061d16565b6001600160a01b0383166000818152602081815260408083209490945583518581529351929391927fddf252ad1be2c89b69c2b068fc378daa952ba7f163c4a11628f55a4df523b3ef9281900390910190a35050565b6001600160a01b038216610aef5760405162461bcd60e51b8152600401808060200182810382526021815260200180610c686021913960400191505060405180910390fd5b610afb82600083610618565b610b3e81604051806060016040528060228152602001610bd6602291396001600160a01b038516600090815260208190526040902054919063ffffffff61067e16565b6001600160a01b038316600090815260208190526040902055600254610b6a908263ffffffff61071516565b6002556040805182815290516000916001600160a01b038516917fddf252ad1be2c89b69c2b068fc378daa952ba7f163c4a11628f55a4df523b3ef9181900360200190a3505056fe45524332303a207472616e7366657220746f20746865207a65726f206164647265737345524332303a206275726e20616d6f756e7420657863656564732062616c616e636545524332303a20617070726f766520746f20746865207a65726f206164647265737345524332303a207472616e7366657220616d6f756e7420657863656564732062616c616e636545524332303a207472616e7366657220616d6f756e74206578636565647320616c6c6f77616e636545524332303a206275726e2066726f6d20746865207a65726f206164647265737345524332303a207472616e736665722066726f6d20746865207a65726f206164647265737345524332303a20617070726f76652066726f6d20746865207a65726f206164647265737345524332303a2064656372656173656420616c6c6f77616e63652062656c6f77207a65726fa2646970667358221220d9c528cba984cd95d46a143931f43daa6256b54feecf78d258d4b66805f723c064736f6c634300060b003345524332303a206275726e20616d6f756e7420657863656564732062616c616e6365ddf252ad1be2c89b69c2b068fc378daa952ba7f163c4a11628f55a4df523b3ef45524332303a206275726e2066726f6d20746865207a65726f2061646472657373",
  "linkReferences": {},
  "deployedLinkReferences": {}
}