{
  "_format": "hh-sol-artifact-1",
  "contractName": "MerkleDistributor",
  "sourceName": "contracts/MerkleDistributor.sol",
  "abi": [
    {
      "inputs": [
        {
          "internalType": "address",
          "name": "token_",
          "type": "address"
        },
        {
          "internalType": "bytes32",
          "name": "merkleRoot_",
          "type": "bytes32"
        }
      ],
      "stateMutability": "nonpayable",
      "type": "constructor"
    },
    {
      "anonymous": false,
      "inputs": [
        {
          "indexed": false,
          "internalType": "uint256",
          "name": "index",
          "type": "uint256"
        },
        {
          "indexed": false,
          "internalType": "address",
          "name": "account",
          "type": "address"
        },
        {
          "indexed": false,
          "internalType": "uint256",
          "name": "score",
          "type": "uint256"
        },
        {
          "indexed": false,
          "internalType": "string",
          "name": "creature",
          "type": "string"
        }
      ],
      "name": "Claimed",
      "type": "event"
    },
    {
      "inputs": [
        {
          "internalType": "uint256",
          "name": "index",
          "type": "uint256"
        },
        {
          "internalType": "address",
          "name": "account",
          "type": "address"
        },
        {
          "internalType": "uint256",
          "name": "score",
          "type": "uint256"
        },
        {
          "internalType": "string",
          "name": "creature",
          "type": "string"
        },
        {
          "internalType": "bytes32[]",
          "name": "merkleProof",
          "type": "bytes32[]"
        }
      ],
      "name": "claim",
      "outputs": [],
      "stateMutability": "nonpayable",
      "type": "function"
    },
    {
      "inputs": [
        {
          "internalType": "uint256",
          "name": "index",
          "type": "uint256"
        }
      ],
      "name": "isClaimed",
      "outputs": [
        {
          "internalType": "bool",
          "name": "",
          "type": "bool"
        }
      ],
      "stateMutability": "view",
      "type": "function"
    },
    {
      "inputs": [],
      "name": "merkleRoot",
      "outputs": [
        {
          "internalType": "bytes32",
          "name": "",
          "type": "bytes32"
        }
      ],
      "stateMutability": "view",
      "type": "function"
    },
    {
      "inputs": [],
      "name": "token",
      "outputs": [
        {
          "internalType": "address",
          "name": "",
          "type": "address"
        }
      ],
      "stateMutability": "view",
      "type": "function"
    }
  ],
  "bytecode": "0x60c060405234801561001057600080fd5b506040516106673803806106678339818101604052604081101561003357600080fd5b508051602090910151606082901b6001600160601b03191660805260a08190526001600160a01b03909116906105e6610081600039806101d7528061033852508061047552506105e66000f3fe608060405234801561001057600080fd5b506004361061004c5760003560e01c80632eb4a7ab146100515780639e34070f1461006b578063f6bf2a591461009c578063fc0c546a146101b1575b600080fd5b6100596101d5565b60408051918252519081900360200190f35b6100886004803603602081101561008157600080fd5b50356101f9565b604080519115158252519081900360200190f35b6101af600480360360a08110156100b257600080fd5b8135916001600160a01b0360208201351691604082013591908101906080810160608201356401000000008111156100e957600080fd5b8201836020820111156100fb57600080fd5b8035906020019184600183028401116401000000008311171561011d57600080fd5b91908080601f016020809104026020016040519081016040528093929190818152602001838380828437600092019190915250929594936020810193503591505064010000000081111561017057600080fd5b82018360208201111561018257600080fd5b803590602001918460208302840111640100000000831117156101a457600080fd5b50909250905061021f565b005b6101b9610473565b604080516001600160a01b039092168252519081900360200190f35b7f000000000000000000000000000000000000000000000000000000000000000081565b6101008104600090815260208190526040902054600160ff9092169190911b9081161490565b610228866101f9565b156102645760405162461bcd60e51b81526004018080602001828103825260288152602001806105686028913960400191505060405180910390fd5b60008686868660405160200180858152602001846001600160a01b03166001600160a01b031660601b815260140183815260200182805190602001908083835b602083106102c35780518252601f1990920191602091820191016102a4565b6001836020036101000a0380198251168184511680821785525050505050509050019450505050506040516020818303038152906040528051906020012090506103638383808060200260200160405190810160405280939291908181526020018383602002808284376000920191909152507f000000000000000000000000000000000000000000000000000000000000000092508591506104979050565b61039e5760405162461bcd60e51b81526004018080602001828103825260218152602001806105906021913960400191505060405180910390fd5b6103a787610540565b7fee563d8e532abc293fca2fdeb41c25180305bddcf9206c167dab3e155aaf17138787878760405180858152602001846001600160a01b03166001600160a01b0316815260200183815260200180602001828103825283818151815260200191508051906020019080838360005b8381101561042d578181015183820152602001610415565b50505050905090810190601f16801561045a5780820380516001836020036101000a031916815260200191505b509550505050505060405180910390a150505050505050565b7f000000000000000000000000000000000000000000000000000000000000000081565b600081815b85518110156105355760008682815181106104b357fe5b602002602001015190508083116104fa578281604051602001808381526020018281526020019250505060405160208183030381529060405280519060200120925061052c565b808360405160200180838152602001828152602001925050506040516020818303038152906040528051906020012092505b5060010161049c565b509092149392505050565b610100810460009081526020819052604090208054600160ff9093169290921b909117905556fe4d65726b6c654469737472696275746f723a2044726f7020616c726561647920636c61696d65642e4d65726b6c654469737472696275746f723a20496e76616c69642070726f6f662ea26469706673582212208420d55b1418dc6a787c5f55467da590727fb9ee81b05226e3f1779934899c8764736f6c634300060b0033",
  "linkReferences": {},
  "deployedLinkReferences": {}
}