{
  "address": "0x6CEda21343ad9eF26c508038302f9e25030cE26d",
  "abi": [
    {
      "inputs": [
        {
          "internalType": "bytes32",
          "name": "merkleRoot_",
          "type": "bytes32"
        }
      ],
      "stateMutability": "nonpayable",
      "type": "constructor"
    },
    {
      "anonymous": false,
      "inputs": [
        {
          "indexed": true,
          "internalType": "address",
          "name": "owner",
          "type": "address"
        },
        {
          "indexed": true,
          "internalType": "address",
          "name": "approved",
          "type": "address"
        },
        {
          "indexed": true,
          "internalType": "uint256",
          "name": "tokenId",
          "type": "uint256"
        }
      ],
      "name": "Approval",
      "type": "event"
    },
    {
      "anonymous": false,
      "inputs": [
        {
          "indexed": true,
          "internalType": "address",
          "name": "owner",
          "type": "address"
        },
        {
          "indexed": true,
          "internalType": "address",
          "name": "operator",
          "type": "address"
        },
        {
          "indexed": false,
          "internalType": "bool",
          "name": "approved",
          "type": "bool"
        }
      ],
      "name": "ApprovalForAll",
      "type": "event"
    },
    {
      "anonymous": false,
      "inputs": [
        {
          "indexed": false,
          "internalType": "uint256",
          "name": "index",
          "type": "uint256"
        },
        {
          "indexed": false,
          "internalType": "address",
          "name": "account",
          "type": "address"
        },
        {
          "indexed": false,
          "internalType": "uint256",
          "name": "score",
          "type": "uint256"
        },
        {
          "indexed": false,
          "internalType": "string",
          "name": "creature",
          "type": "string"
        }
      ],
      "name": "Claimed",
      "type": "event"
    },
    {
      "anonymous": false,
      "inputs": [
        {
          "indexed": true,
          "internalType": "address",
          "name": "previousOwner",
          "type": "address"
        },
        {
          "indexed": true,
          "internalType": "address",
          "name": "newOwner",
          "type": "address"
        }
      ],
      "name": "OwnershipTransferred",
      "type": "event"
    },
    {
      "anonymous": false,
      "inputs": [
        {
          "indexed": true,
          "internalType": "address",
          "name": "from",
          "type": "address"
        },
        {
          "indexed": true,
          "internalType": "address",
          "name": "to",
          "type": "address"
        },
        {
          "indexed": true,
          "internalType": "uint256",
          "name": "tokenId",
          "type": "uint256"
        }
      ],
      "name": "Transfer",
      "type": "event"
    },
    {
      "inputs": [
        {
          "internalType": "address",
          "name": "to",
          "type": "address"
        },
        {
          "internalType": "uint256",
          "name": "tokenId",
          "type": "uint256"
        }
      ],
      "name": "approve",
      "outputs": [],
      "stateMutability": "nonpayable",
      "type": "function"
    },
    {
      "inputs": [
        {
          "internalType": "address",
          "name": "owner",
          "type": "address"
        }
      ],
      "name": "balanceOf",
      "outputs": [
        {
          "internalType": "uint256",
          "name": "",
          "type": "uint256"
        }
      ],
      "stateMutability": "view",
      "type": "function"
    },
    {
      "inputs": [
        {
          "internalType": "uint256",
          "name": "index",
          "type": "uint256"
        },
        {
          "internalType": "address",
          "name": "account",
          "type": "address"
        },
        {
          "internalType": "uint256",
          "name": "score",
          "type": "uint256"
        },
        {
          "internalType": "string",
          "name": "creature",
          "type": "string"
        },
        {
          "internalType": "bytes32[]",
          "name": "merkleProof",
          "type": "bytes32[]"
        }
      ],
      "name": "claim",
      "outputs": [],
      "stateMutability": "nonpayable",
      "type": "function"
    },
    {
      "inputs": [],
      "name": "count",
      "outputs": [
        {
          "internalType": "uint256",
          "name": "",
          "type": "uint256"
        }
      ],
      "stateMutability": "view",
      "type": "function"
    },
    {
      "inputs": [
        {
          "internalType": "uint256",
          "name": "tokenId",
          "type": "uint256"
        }
      ],
      "name": "getApproved",
      "outputs": [
        {
          "internalType": "address",
          "name": "",
          "type": "address"
        }
      ],
      "stateMutability": "view",
      "type": "function"
    },
    {
      "inputs": [
        {
          "internalType": "address",
          "name": "owner",
          "type": "address"
        },
        {
          "internalType": "address",
          "name": "operator",
          "type": "address"
        }
      ],
      "name": "isApprovedForAll",
      "outputs": [
        {
          "internalType": "bool",
          "name": "",
          "type": "bool"
        }
      ],
      "stateMutability": "view",
      "type": "function"
    },
    {
      "inputs": [
        {
          "internalType": "uint256",
          "name": "index",
          "type": "uint256"
        }
      ],
      "name": "isClaimed",
      "outputs": [
        {
          "internalType": "bool",
          "name": "",
          "type": "bool"
        }
      ],
      "stateMutability": "view",
      "type": "function"
    },
    {
      "inputs": [],
      "name": "merkleRoot",
      "outputs": [
        {
          "internalType": "bytes32",
          "name": "",
          "type": "bytes32"
        }
      ],
      "stateMutability": "view",
      "type": "function"
    },
    {
      "inputs": [],
      "name": "name",
      "outputs": [
        {
          "internalType": "string",
          "name": "",
          "type": "string"
        }
      ],
      "stateMutability": "view",
      "type": "function"
    },
    {
      "inputs": [],
      "name": "owner",
      "outputs": [
        {
          "internalType": "address",
          "name": "",
          "type": "address"
        }
      ],
      "stateMutability": "view",
      "type": "function"
    },
    {
      "inputs": [
        {
          "internalType": "uint256",
          "name": "tokenId",
          "type": "uint256"
        }
      ],
      "name": "ownerOf",
      "outputs": [
        {
          "internalType": "address",
          "name": "",
          "type": "address"
        }
      ],
      "stateMutability": "view",
      "type": "function"
    },
    {
      "inputs": [],
      "name": "renounceOwnership",
      "outputs": [],
      "stateMutability": "nonpayable",
      "type": "function"
    },
    {
      "inputs": [
        {
          "internalType": "address",
          "name": "from",
          "type": "address"
        },
        {
          "internalType": "address",
          "name": "to",
          "type": "address"
        },
        {
          "internalType": "uint256",
          "name": "tokenId",
          "type": "uint256"
        }
      ],
      "name": "safeTransferFrom",
      "outputs": [],
      "stateMutability": "nonpayable",
      "type": "function"
    },
    {
      "inputs": [
        {
          "internalType": "address",
          "name": "from",
          "type": "address"
        },
        {
          "internalType": "address",
          "name": "to",
          "type": "address"
        },
        {
          "internalType": "uint256",
          "name": "tokenId",
          "type": "uint256"
        },
        {
          "internalType": "bytes",
          "name": "_data",
          "type": "bytes"
        }
      ],
      "name": "safeTransferFrom",
      "outputs": [],
      "stateMutability": "nonpayable",
      "type": "function"
    },
    {
      "inputs": [
        {
          "internalType": "address",
          "name": "operator",
          "type": "address"
        },
        {
          "internalType": "bool",
          "name": "approved",
          "type": "bool"
        }
      ],
      "name": "setApprovalForAll",
      "outputs": [],
      "stateMutability": "nonpayable",
      "type": "function"
    },
    {
      "inputs": [
        {
          "internalType": "bytes4",
          "name": "interfaceId",
          "type": "bytes4"
        }
      ],
      "name": "supportsInterface",
      "outputs": [
        {
          "internalType": "bool",
          "name": "",
          "type": "bool"
        }
      ],
      "stateMutability": "view",
      "type": "function"
    },
    {
      "inputs": [],
      "name": "symbol",
      "outputs": [
        {
          "internalType": "string",
          "name": "",
          "type": "string"
        }
      ],
      "stateMutability": "view",
      "type": "function"
    },
    {
      "inputs": [
        {
          "internalType": "uint256",
          "name": "tokenId",
          "type": "uint256"
        }
      ],
      "name": "tokenURI",
      "outputs": [
        {
          "internalType": "string",
          "name": "",
          "type": "string"
        }
      ],
      "stateMutability": "view",
      "type": "function"
    },
    {
      "inputs": [
        {
          "internalType": "address",
          "name": "from",
          "type": "address"
        },
        {
          "internalType": "address",
          "name": "to",
          "type": "address"
        },
        {
          "internalType": "uint256",
          "name": "tokenId",
          "type": "uint256"
        }
      ],
      "name": "transferFrom",
      "outputs": [],
      "stateMutability": "nonpayable",
      "type": "function"
    },
    {
      "inputs": [
        {
          "internalType": "address",
          "name": "newOwner",
          "type": "address"
        }
      ],
      "name": "transferOwnership",
      "outputs": [],
      "stateMutability": "nonpayable",
      "type": "function"
    }
  ],
  "transactionHash": "0x7caa5aa40a3e7d1543659cf314c4248d679181e82c8c3d9068b020caba8dca40",
  "args": [
    "0x1fe4549be478cc1af80780fc09cb768475822ca88620eb584119767377b7b00d"
  ],
  "numDeployments": 1,
  "solcInputHash": "4e3d969838f73031a7557537551d14ae",
  "bytecode": "0x60a060405260006007553480156200001657600080fd5b50604051620027e6380380620027e6833981016040819052620000399162000252565b604080518082018252600a808252696d65746163726166743160b01b6020808401828152855180870190965292855284015281519192916200007e91600091620001ac565b50805162000094906001906020840190620001ac565b505050620000b1620000ab6200015660201b60201c565b6200015a565b608081815260408051918201905260478082526200279f60208301396009604051620000dd906200026b565b9081526020016040518091039020908051906020019062000100929190620001ac565b506040518060800160405280604781526020016200279f6047913960096040516200012b9062000282565b908152602001604051809103902090805190602001906200014e929190620001ac565b5050620002d6565b3390565b600680546001600160a01b038381166001600160a01b0319831681179093556040519116919082907f8be0079c531659141344cd1fd0a4f28419497f9722a3daafe3b4186f6b6457e090600090a35050565b828054620001ba9062000299565b90600052602060002090601f016020900481019282620001de576000855562000229565b82601f10620001f957805160ff191683800117855562000229565b8280016001018555821562000229579182015b82811115620002295782518255916020019190600101906200020c565b50620002379291506200023b565b5090565b5b808211156200023757600081556001016200023c565b60006020828403121562000264578081fd5b5051919050565b6a29b634b6b2a3b7b63232b760a91b8152600b0190565b6a29b634b6b2a1b7b83832b960a91b8152600b0190565b600281046001821680620002ae57607f821691505b60208210811415620002d057634e487b7160e01b600052602260045260246000fd5b50919050565b6080516124a6620002f96000396000818161051a0152610a3101526124a66000f3fe608060405234801561001057600080fd5b506004361061016c5760003560e01c8063715018a6116100cd578063b88d4fde11610081578063e985e9c511610066578063e985e9c5146102b1578063f2fde38b146102c4578063f6bf2a59146102d75761016c565b8063b88d4fde1461028b578063c87b56dd1461029e5761016c565b806395d89b41116100b257806395d89b411461025d5780639e34070f14610265578063a22cb465146102785761016c565b8063715018a61461024d5780638da5cb5b146102555761016c565b806323b872dd1161012457806342842e0e1161010957806342842e0e146102145780636352211e1461022757806370a082311461023a5761016c565b806323b872dd146101f95780632eb4a7ab1461020c5761016c565b806306fdde031161015557806306fdde03146101af578063081812fc146101c4578063095ea7b3146101e45761016c565b806301ffc9a71461017157806306661abd1461019a575b600080fd5b61018461017f3660046118c6565b6102ea565b6040516101919190611d1c565b60405180910390f35b6101a2610364565b6040516101919190611d27565b6101b761036a565b6040516101919190611d30565b6101d76101d23660046118fe565b6103fc565b6040516101919190611ccc565b6101f76101f236600461189d565b610448565b005b6101f76102073660046117af565b6104e0565b6101a2610518565b6101f76102223660046117af565b61053c565b6101d76102353660046118fe565b610557565b6101a261024836600461175c565b61058c565b6101f76105d0565b6101d761061b565b6101b761062a565b6101846102733660046118fe565b610639565b6101f7610286366004611863565b61067a565b6101f76102993660046117ea565b610690565b6101b76102ac3660046118fe565b6106cf565b6101846102bf36600461177d565b610906565b6101f76102d236600461175c565b610934565b6101f76102e5366004611916565b6109a5565b60006001600160e01b031982167f80ac58cd00000000000000000000000000000000000000000000000000000000148061034d57506001600160e01b031982167f5b5e139f00000000000000000000000000000000000000000000000000000000145b8061035c575061035c82610b40565b90505b919050565b60075481565b6060600080546103799061236e565b80601f01602080910402602001604051908101604052809291908181526020018280546103a59061236e565b80156103f25780601f106103c7576101008083540402835291602001916103f2565b820191906000526020600020905b8154815290600101906020018083116103d557829003601f168201915b5050505050905090565b600061040782610b72565b61042c5760405162461bcd60e51b81526004016104239061211a565b60405180910390fd5b506000908152600460205260409020546001600160a01b031690565b600061045382610557565b9050806001600160a01b0316836001600160a01b031614156104875760405162461bcd60e51b8152600401610423906121f8565b806001600160a01b0316610499610b8f565b6001600160a01b031614806104b557506104b5816102bf610b8f565b6104d15760405162461bcd60e51b815260040161042390611fce565b6104db8383610b93565b505050565b6104f16104eb610b8f565b82610c0e565b61050d5760405162461bcd60e51b815260040161042390612255565b6104db838383610c93565b7f000000000000000000000000000000000000000000000000000000000000000081565b6104db83838360405180602001604052806000815250610690565b6000818152600260205260408120546001600160a01b03168061035c5760405162461bcd60e51b815260040161042390612088565b60006001600160a01b0382166105b45760405162461bcd60e51b81526004016104239061202b565b506001600160a01b031660009081526003602052604090205490565b6105d8610b8f565b6001600160a01b03166105e961061b565b6001600160a01b03161461060f5760405162461bcd60e51b815260040161042390612166565b6106196000610dcd565b565b6006546001600160a01b031690565b6060600180546103799061236e565b600080610648610100846122f8565b90506000610658610100856123c4565b60009283526008602052604090922054600190921b9182169091149392505050565b61068c610685610b8f565b8383610e2c565b5050565b6106a161069b610b8f565b83610c0e565b6106bd5760405162461bcd60e51b815260040161042390612255565b6106c984848484610ecf565b50505050565b60606000600a60008481526020019081526020016000206040518060600160405290816000820154815260200160018201805461070b9061236e565b80601f01602080910402602001604051908101604052809291908181526020018280546107379061236e565b80156107845780601f1061075957610100808354040283529160200191610784565b820191906000526020600020905b81548152906001019060200180831161076757829003601f168201915b50505050508152602001600282015481525050905060006107a88260000151610f02565b905060008260200151826107bb87610fc3565b6040516020016107cd93929190611a67565b6040516020818303038152906040529050600060098460200151846040516020016107f9929190611a38565b60408051601f198184030181529082905261081391611a1c565b9081526020016040518091039020805461082c9061236e565b80601f01602080910402602001604051908101604052809291908181526020018280546108589061236e565b80156108a55780601f1061087a576101008083540402835291602001916108a5565b820191906000526020600020905b81548152906001019060200180831161088857829003601f168201915b5050505050905060006108d883836040516020016108c4929190611afe565b604051602081830303815290604052611112565b9050806040516020016108eb9190611c41565b60405160208183030381529060405295505050505050919050565b6001600160a01b03918216600090815260056020908152604080832093909416825291909152205460ff1690565b61093c610b8f565b6001600160a01b031661094d61061b565b6001600160a01b0316146109735760405162461bcd60e51b815260040161042390612166565b6001600160a01b0381166109995760405162461bcd60e51b815260040161042390611da0565b6109a281610dcd565b50565b6109ae86610639565b156109cb5760405162461bcd60e51b815260040161042390611e34565b6000868686866040516020016109e49493929190611c86565b604051602081830303815290604052805190602001209050610a5c8383808060200260200160405190810160405280939291908181526020018383602002808284376000920191909152507f000000000000000000000000000000000000000000000000000000000000000092508591506112bd9050565b610a785760405162461bcd60e51b815260040161042390611f71565b610a81876112d3565b610a8d86600754611311565b6040805160608101825286815260208082018781528284018b90526007546000908152600a8352939093208251815592518051929392610ad3926001850192019061163c565b5060408201518160020155905050600160076000828254610af491906122e0565b90915550506040517fee563d8e532abc293fca2fdeb41c25180305bddcf9206c167dab3e155aaf171390610b2f9089908990899089906122b2565b60405180910390a150505050505050565b6001600160e01b031981167f01ffc9a70000000000000000000000000000000000000000000000000000000014919050565b6000908152600260205260409020546001600160a01b0316151590565b3390565b6000818152600460205260409020805473ffffffffffffffffffffffffffffffffffffffff19166001600160a01b0384169081179091558190610bd582610557565b6001600160a01b03167f8c5be1e5ebec7d5bd14f71427d1e84f3dd0314c0f7b2291e5b200ac8c7c3b92560405160405180910390a45050565b6000610c1982610b72565b610c355760405162461bcd60e51b815260040161042390611f25565b6000610c4083610557565b9050806001600160a01b0316846001600160a01b03161480610c7b5750836001600160a01b0316610c70846103fc565b6001600160a01b0316145b80610c8b5750610c8b8185610906565b949350505050565b826001600160a01b0316610ca682610557565b6001600160a01b031614610ccc5760405162461bcd60e51b81526004016104239061219b565b6001600160a01b038216610cf25760405162461bcd60e51b815260040161042390611e91565b610cfd8383836104db565b610d08600082610b93565b6001600160a01b0383166000908152600360205260408120805460019290610d3190849061232b565b90915550506001600160a01b0382166000908152600360205260408120805460019290610d5f9084906122e0565b9091555050600081815260026020526040808220805473ffffffffffffffffffffffffffffffffffffffff19166001600160a01b0386811691821790925591518493918716917fddf252ad1be2c89b69c2b068fc378daa952ba7f163c4a11628f55a4df523b3ef91a4505050565b600680546001600160a01b0383811673ffffffffffffffffffffffffffffffffffffffff19831681179093556040519116919082907f8be0079c531659141344cd1fd0a4f28419497f9722a3daafe3b4186f6b6457e090600090a35050565b816001600160a01b0316836001600160a01b03161415610e5e5760405162461bcd60e51b815260040161042390611eee565b6001600160a01b0383811660008181526005602090815260408083209487168084529490915290819020805460ff1916851515179055517f17307eab39ab6107e8899845ad3d59bd9653f200f220920489ca2b5937696c3190610ec2908590611d1c565b60405180910390a3505050565b610eda848484610c93565b610ee68484848461132b565b6106c95760405162461bcd60e51b815260040161042390611d43565b60606107d08210610f47575060408051808201909152600681527f476f6c64656e0000000000000000000000000000000000000000000000000000602082015261035f565b6103e88210610f8a575060408051808201909152600781527f53696c7665727900000000000000000000000000000000000000000000000000602082015261035f565b505060408051808201909152600681527f436f707065720000000000000000000000000000000000000000000000000000602082015290565b606081611004575060408051808201909152600181527f3000000000000000000000000000000000000000000000000000000000000000602082015261035f565b8160005b811561102e5780611018816123a9565b91506110279050600a836122f8565b9150611008565b60008167ffffffffffffffff81111561105757634e487b7160e01b600052604160045260246000fd5b6040519080825280601f01601f191660200182016040528015611081576020820181803683370190505b5090505b8415610c8b5761109660018361232b565b91506110a3600a866123c4565b6110ae9060306122e0565b60f81b8183815181106110d157634e487b7160e01b600052603260045260246000fd5b60200101907effffffffffffffffffffffffffffffffffffffffffffffffffffffffffffff1916908160001a90535061110b600a866122f8565b9450611085565b80516060908061113257505060408051602081019091526000815261035f565b600060036111418360026122e0565b61114b91906122f8565b61115690600461230c565b905060006111658260206122e0565b67ffffffffffffffff81111561118b57634e487b7160e01b600052604160045260246000fd5b6040519080825280601f01601f1916602001820160405280156111b5576020820181803683370190505b5090506000604051806060016040528060408152602001612431604091399050600181016020830160005b86811015611241576003818a01810151603f601282901c8116860151600c83901c8216870151600684901c831688015192909316870151600891821b60ff94851601821b92841692909201901b91160160e01b8352600490920191016111e0565b50600386066001811461125b5760028114611287576112af565b7f3d3d0000000000000000000000000000000000000000000000000000000000006001198301526112af565b7f3d000000000000000000000000000000000000000000000000000000000000006000198301525b505050918152949350505050565b6000826112ca858461145f565b14949350505050565b60006112e1610100836122f8565b905060006112f1610100846123c4565b6000928352600860205260409092208054600190931b9092179091555050565b61068c828260405180602001604052806000815250611517565b600061133f846001600160a01b031661154a565b1561145457836001600160a01b031663150b7a0261135b610b8f565b8786866040518563ffffffff1660e01b815260040161137d9493929190611ce0565b602060405180830381600087803b15801561139757600080fd5b505af19250505080156113c7575060408051601f3d908101601f191682019092526113c4918101906118e2565b60015b611421573d8080156113f5576040519150601f19603f3d011682016040523d82523d6000602084013e6113fa565b606091505b5080516114195760405162461bcd60e51b815260040161042390611d43565b805181602001fd5b6001600160e01b0319167f150b7a0200000000000000000000000000000000000000000000000000000000149050610c8b565b506001949350505050565b600081815b845181101561150f57600085828151811061148f57634e487b7160e01b600052603260045260246000fd5b602002602001015190508083116114d05782816040516020016114b3929190611a0e565b6040516020818303038152906040528051906020012092506114fc565b80836040516020016114e3929190611a0e565b6040516020818303038152906040528051906020012092505b5080611507816123a9565b915050611464565b509392505050565b6115218383611550565b61152e600084848461132b565b6104db5760405162461bcd60e51b815260040161042390611d43565b3b151590565b6001600160a01b0382166115765760405162461bcd60e51b8152600401610423906120e5565b61157f81610b72565b1561159c5760405162461bcd60e51b815260040161042390611dfd565b6115a8600083836104db565b6001600160a01b03821660009081526003602052604081208054600192906115d19084906122e0565b9091555050600081815260026020526040808220805473ffffffffffffffffffffffffffffffffffffffff19166001600160a01b03861690811790915590518392907fddf252ad1be2c89b69c2b068fc378daa952ba7f163c4a11628f55a4df523b3ef908290a45050565b8280546116489061236e565b90600052602060002090601f01602090048101928261166a57600085556116b0565b82601f1061168357805160ff19168380011785556116b0565b828001600101855582156116b0579182015b828111156116b0578251825591602001919060010190611695565b506116bc9291506116c0565b5090565b5b808211156116bc57600081556001016116c1565b600067ffffffffffffffff808411156116f0576116f0612404565b604051601f8501601f19168101602001828111828210171561171457611714612404565b60405284815291508183850186101561172c57600080fd5b8484602083013760006020868301015250509392505050565b80356001600160a01b038116811461035f57600080fd5b60006020828403121561176d578081fd5b61177682611745565b9392505050565b6000806040838503121561178f578081fd5b61179883611745565b91506117a660208401611745565b90509250929050565b6000806000606084860312156117c3578081fd5b6117cc84611745565b92506117da60208501611745565b9150604084013590509250925092565b600080600080608085870312156117ff578081fd5b61180885611745565b935061181660208601611745565b925060408501359150606085013567ffffffffffffffff811115611838578182fd5b8501601f81018713611848578182fd5b611857878235602084016116d5565b91505092959194509250565b60008060408385031215611875578182fd5b61187e83611745565b915060208301358015158114611892578182fd5b809150509250929050565b600080604083850312156118af578182fd5b6118b883611745565b946020939093013593505050565b6000602082840312156118d7578081fd5b81356117768161241a565b6000602082840312156118f3578081fd5b81516117768161241a565b60006020828403121561190f578081fd5b5035919050565b60008060008060008060a0878903121561192e578182fd5b8635955061193e60208801611745565b945060408701359350606087013567ffffffffffffffff80821115611961578384fd5b818901915089601f830112611974578384fd5b6119838a8335602085016116d5565b94506080890135915080821115611998578384fd5b818901915089601f8301126119ab578384fd5b8135818111156119b9578485fd5b8a602080830285010111156119cc578485fd5b6020830194508093505050509295509295509295565b600081518084526119fa816020860160208601612342565b601f01601f19169290920160200192915050565b918252602082015260400190565b60008251611a2e818460208701612342565b9190910192915050565b60008351611a4a818460208801612342565b835190830190611a5e818360208801612342565b01949350505050565b60008451611a79818460208901612342565b7f20000000000000000000000000000000000000000000000000000000000000009083019081528451611ab3816001840160208901612342565b7f2300000000000000000000000000000000000000000000000000000000000000600192909101918201528351611af1816002840160208801612342565b0160020195945050505050565b60007f7b226e616d65223a20220000000000000000000000000000000000000000000082528351611b3681600a850160208801612342565b7f222c000000000000000000000000000000000000000000000000000000000000600a918401918201527f226465736372697074696f6e223a20224d65746163726166742053756d6d6172600c8201527f79222c0000000000000000000000000000000000000000000000000000000000602c8201527f22696d616765223a220000000000000000000000000000000000000000000000602f8201528351611be5816038840160208801612342565b7f2200000000000000000000000000000000000000000000000000000000000000603892909101918201527f5d7d0000000000000000000000000000000000000000000000000000000000006039820152603b01949350505050565b60007f646174613a6170706c69636174696f6e2f6a736f6e3b6261736536342c00000082528251611c7981601d850160208701612342565b91909101601d0192915050565b60008582526bffffffffffffffffffffffff198560601b1660208301528360348301528251611cbc816054850160208701612342565b9190910160540195945050505050565b6001600160a01b0391909116815260200190565b60006001600160a01b03808716835280861660208401525083604083015260806060830152611d1260808301846119e2565b9695505050505050565b901515815260200190565b90815260200190565b60006020825261177660208301846119e2565b60208082526032908201527f4552433732313a207472616e7366657220746f206e6f6e20455243373231526560408201527f63656976657220696d706c656d656e7465720000000000000000000000000000606082015260800190565b60208082526026908201527f4f776e61626c653a206e6577206f776e657220697320746865207a65726f206160408201527f6464726573730000000000000000000000000000000000000000000000000000606082015260800190565b6020808252601c908201527f4552433732313a20746f6b656e20616c7265616479206d696e74656400000000604082015260600190565b60208082526028908201527f4d65726b6c654469737472696275746f723a2044726f7020616c72656164792060408201527f636c61696d65642e000000000000000000000000000000000000000000000000606082015260800190565b60208082526024908201527f4552433732313a207472616e7366657220746f20746865207a65726f2061646460408201527f7265737300000000000000000000000000000000000000000000000000000000606082015260800190565b60208082526019908201527f4552433732313a20617070726f766520746f2063616c6c657200000000000000604082015260600190565b6020808252602c908201527f4552433732313a206f70657261746f7220717565727920666f72206e6f6e657860408201526b34b9ba32b73a103a37b5b2b760a11b606082015260800190565b60208082526021908201527f4d65726b6c654469737472696275746f723a20496e76616c69642070726f6f6660408201527f2e00000000000000000000000000000000000000000000000000000000000000606082015260800190565b60208082526038908201527f4552433732313a20617070726f76652063616c6c6572206973206e6f74206f7760408201527f6e6572206e6f7220617070726f76656420666f7220616c6c0000000000000000606082015260800190565b6020808252602a908201527f4552433732313a2062616c616e636520717565727920666f7220746865207a6560408201527f726f206164647265737300000000000000000000000000000000000000000000606082015260800190565b60208082526029908201527f4552433732313a206f776e657220717565727920666f72206e6f6e657869737460408201527f656e7420746f6b656e0000000000000000000000000000000000000000000000606082015260800190565b6020808252818101527f4552433732313a206d696e7420746f20746865207a65726f2061646472657373604082015260600190565b6020808252602c908201527f4552433732313a20617070726f76656420717565727920666f72206e6f6e657860408201526b34b9ba32b73a103a37b5b2b760a11b606082015260800190565b6020808252818101527f4f776e61626c653a2063616c6c6572206973206e6f7420746865206f776e6572604082015260600190565b60208082526029908201527f4552433732313a207472616e73666572206f6620746f6b656e2074686174206960408201527f73206e6f74206f776e0000000000000000000000000000000000000000000000606082015260800190565b60208082526021908201527f4552433732313a20617070726f76616c20746f2063757272656e74206f776e6560408201527f7200000000000000000000000000000000000000000000000000000000000000606082015260800190565b60208082526031908201527f4552433732313a207472616e736665722063616c6c6572206973206e6f74206f60408201527f776e6572206e6f7220617070726f766564000000000000000000000000000000606082015260800190565b60008582526001600160a01b038516602083015283604083015260806060830152611d1260808301846119e2565b600082198211156122f3576122f36123d8565b500190565b600082612307576123076123ee565b500490565b6000816000190483118215151615612326576123266123d8565b500290565b60008282101561233d5761233d6123d8565b500390565b60005b8381101561235d578181015183820152602001612345565b838111156106c95750506000910152565b60028104600182168061238257607f821691505b602082108114156123a357634e487b7160e01b600052602260045260246000fd5b50919050565b60006000198214156123bd576123bd6123d8565b5060010190565b6000826123d3576123d36123ee565b500690565b634e487b7160e01b600052601160045260246000fd5b634e487b7160e01b600052601260045260246000fd5b634e487b7160e01b600052604160045260246000fd5b6001600160e01b0319811681146109a257600080fdfe4142434445464748494a4b4c4d4e4f505152535455565758595a6162636465666768696a6b6c6d6e6f707172737475767778797a303132333435363738392b2fa2646970667358221220dfdb84b6c84130bb3074b7e35c9899cc23018597fbc85fd0871fcc69ef86243d64736f6c6343000800003368747470733a2f2f73746f726167652e676f6f676c65617069732e636f6d2f6f70656e7365612d70726f642e61707073706f742e636f6d2f63726561747572652f35302e706e67",
  "devdoc": {
    "kind": "dev",
    "methods": {
      "approve(address,uint256)": {
        "details": "See {IERC721-approve}."
      },
      "balanceOf(address)": {
        "details": "See {IERC721-balanceOf}."
      },
      "getApproved(uint256)": {
        "details": "See {IERC721-getApproved}."
      },
      "isApprovedForAll(address,address)": {
        "details": "See {IERC721-isApprovedForAll}."
      },
      "name()": {
        "details": "See {IERC721Metadata-name}."
      },
      "owner()": {
        "details": "Returns the address of the current owner."
      },
      "ownerOf(uint256)": {
        "details": "See {IERC721-ownerOf}."
      },
      "renounceOwnership()": {
        "details": "Leaves the contract without owner. It will not be possible to call `onlyOwner` functions anymore. Can only be called by the current owner. NOTE: Renouncing ownership will leave the contract without an owner, thereby removing any functionality that is only available to the owner."
      },
      "safeTransferFrom(address,address,uint256)": {
        "details": "See {IERC721-safeTransferFrom}."
      },
      "safeTransferFrom(address,address,uint256,bytes)": {
        "details": "See {IERC721-safeTransferFrom}."
      },
      "setApprovalForAll(address,bool)": {
        "details": "See {IERC721-setApprovalForAll}."
      },
      "supportsInterface(bytes4)": {
        "details": "See {IERC165-supportsInterface}."
      },
      "symbol()": {
        "details": "See {IERC721Metadata-symbol}."
      },
      "tokenURI(uint256)": {
        "details": "See {IERC721Metadata-tokenURI}."
      },
      "transferFrom(address,address,uint256)": {
        "details": "See {IERC721-transferFrom}."
      },
      "transferOwnership(address)": {
        "details": "Transfers ownership of the contract to a new account (`newOwner`). Can only be called by the current owner."
      }
    },
    "version": 1
  },
  "userdoc": {
    "kind": "user",
    "methods": {},
    "version": 1
  },
  "storageLayout": {
    "storage": [
      {
        "astId": 130,
        "contract": "contracts/MerkleDistributor.sol:MerkleDistributor",
        "label": "_name",
        "offset": 0,
        "slot": "0",
        "type": "t_string_storage"
      },
      {
        "astId": 132,
        "contract": "contracts/MerkleDistributor.sol:MerkleDistributor",
        "label": "_symbol",
        "offset": 0,
        "slot": "1",
        "type": "t_string_storage"
      },
      {
        "astId": 136,
        "contract": "contracts/MerkleDistributor.sol:MerkleDistributor",
        "label": "_owners",
        "offset": 0,
        "slot": "2",
        "type": "t_mapping(t_uint256,t_address)"
      },
      {
        "astId": 140,
        "contract": "contracts/MerkleDistributor.sol:MerkleDistributor",
        "label": "_balances",
        "offset": 0,
        "slot": "3",
        "type": "t_mapping(t_address,t_uint256)"
      },
      {
        "astId": 144,
        "contract": "contracts/MerkleDistributor.sol:MerkleDistributor",
        "label": "_tokenApprovals",
        "offset": 0,
        "slot": "4",
        "type": "t_mapping(t_uint256,t_address)"
      },
      {
        "astId": 150,
        "contract": "contracts/MerkleDistributor.sol:MerkleDistributor",
        "label": "_operatorApprovals",
        "offset": 0,
        "slot": "5",
        "type": "t_mapping(t_address,t_mapping(t_address,t_bool))"
      },
      {
        "astId": 7,
        "contract": "contracts/MerkleDistributor.sol:MerkleDistributor",
        "label": "_owner",
        "offset": 0,
        "slot": "6",
        "type": "t_address"
      },
      {
        "astId": 1822,
        "contract": "contracts/MerkleDistributor.sol:MerkleDistributor",
        "label": "count",
        "offset": 0,
        "slot": "7",
        "type": "t_uint256"
      },
      {
        "astId": 1829,
        "contract": "contracts/MerkleDistributor.sol:MerkleDistributor",
        "label": "claimedBitMap",
        "offset": 0,
        "slot": "8",
        "type": "t_mapping(t_uint256,t_uint256)"
      },
      {
        "astId": 1833,
        "contract": "contracts/MerkleDistributor.sol:MerkleDistributor",
        "label": "urlMap",
        "offset": 0,
        "slot": "9",
        "type": "t_mapping(t_string_memory_ptr,t_string_storage)"
      },
      {
        "astId": 1838,
        "contract": "contracts/MerkleDistributor.sol:MerkleDistributor",
        "label": "tokenSummary",
        "offset": 0,
        "slot": "10",
        "type": "t_mapping(t_uint256,t_struct(Summary)1819_storage)"
      }
    ],
    "types": {
      "t_address": {
        "encoding": "inplace",
        "label": "address",
        "numberOfBytes": "20"
      },
      "t_bool": {
        "encoding": "inplace",
        "label": "bool",
        "numberOfBytes": "1"
      },
      "t_mapping(t_address,t_bool)": {
        "encoding": "mapping",
        "key": "t_address",
        "label": "mapping(address => bool)",
        "numberOfBytes": "32",
        "value": "t_bool"
      },
      "t_mapping(t_address,t_mapping(t_address,t_bool))": {
        "encoding": "mapping",
        "key": "t_address",
        "label": "mapping(address => mapping(address => bool))",
        "numberOfBytes": "32",
        "value": "t_mapping(t_address,t_bool)"
      },
      "t_mapping(t_address,t_uint256)": {
        "encoding": "mapping",
        "key": "t_address",
        "label": "mapping(address => uint256)",
        "numberOfBytes": "32",
        "value": "t_uint256"
      },
      "t_mapping(t_string_memory_ptr,t_string_storage)": {
        "encoding": "mapping",
        "key": "t_string_memory_ptr",
        "label": "mapping(string => string)",
        "numberOfBytes": "32",
        "value": "t_string_storage"
      },
      "t_mapping(t_uint256,t_address)": {
        "encoding": "mapping",
        "key": "t_uint256",
        "label": "mapping(uint256 => address)",
        "numberOfBytes": "32",
        "value": "t_address"
      },
      "t_mapping(t_uint256,t_struct(Summary)1819_storage)": {
        "encoding": "mapping",
        "key": "t_uint256",
        "label": "mapping(uint256 => struct MerkleDistributor.Summary)",
        "numberOfBytes": "32",
        "value": "t_struct(Summary)1819_storage"
      },
      "t_mapping(t_uint256,t_uint256)": {
        "encoding": "mapping",
        "key": "t_uint256",
        "label": "mapping(uint256 => uint256)",
        "numberOfBytes": "32",
        "value": "t_uint256"
      },
      "t_string_memory_ptr": {
        "encoding": "bytes",
        "label": "string",
        "numberOfBytes": "32"
      },
      "t_string_storage": {
        "encoding": "bytes",
        "label": "string",
        "numberOfBytes": "32"
      },
      "t_struct(Summary)1819_storage": {
        "encoding": "inplace",
        "label": "struct MerkleDistributor.Summary",
        "members": [
          {
            "astId": 1814,
            "contract": "contracts/MerkleDistributor.sol:MerkleDistributor",
            "label": "score",
            "offset": 0,
            "slot": "0",
            "type": "t_uint256"
          },
          {
            "astId": 1816,
            "contract": "contracts/MerkleDistributor.sol:MerkleDistributor",
            "label": "creature",
            "offset": 0,
            "slot": "1",
            "type": "t_string_storage"
          },
          {
            "astId": 1818,
            "contract": "contracts/MerkleDistributor.sol:MerkleDistributor",
            "label": "index",
            "offset": 0,
            "slot": "2",
            "type": "t_uint256"
          }
        ],
        "numberOfBytes": "96"
      },
      "t_uint256": {
        "encoding": "inplace",
        "label": "uint256",
        "numberOfBytes": "32"
      }
    }
  }
}