{
  "address": "0x7F5B5CD373bF42EB06d1daeB46BA1FC642268127",
  "abi": [
    {
      "inputs": [
        {
          "internalType": "bytes32",
          "name": "merkleRoot_",
          "type": "bytes32"
        }
      ],
      "stateMutability": "nonpayable",
      "type": "constructor"
    },
    {
      "anonymous": false,
      "inputs": [
        {
          "indexed": false,
          "internalType": "uint256",
          "name": "index",
          "type": "uint256"
        },
        {
          "indexed": false,
          "internalType": "address",
          "name": "account",
          "type": "address"
        },
        {
          "indexed": false,
          "internalType": "uint256",
          "name": "score",
          "type": "uint256"
        },
        {
          "indexed": false,
          "internalType": "string",
          "name": "creature",
          "type": "string"
        }
      ],
      "name": "Claimed",
      "type": "event"
    },
    {
      "inputs": [
        {
          "internalType": "uint256",
          "name": "index",
          "type": "uint256"
        },
        {
          "internalType": "address",
          "name": "account",
          "type": "address"
        },
        {
          "internalType": "uint256",
          "name": "score",
          "type": "uint256"
        },
        {
          "internalType": "string",
          "name": "creature",
          "type": "string"
        },
        {
          "internalType": "bytes32[]",
          "name": "merkleProof",
          "type": "bytes32[]"
        }
      ],
      "name": "claim",
      "outputs": [],
      "stateMutability": "nonpayable",
      "type": "function"
    },
    {
      "inputs": [
        {
          "internalType": "uint256",
          "name": "index",
          "type": "uint256"
        }
      ],
      "name": "isClaimed",
      "outputs": [
        {
          "internalType": "bool",
          "name": "",
          "type": "bool"
        }
      ],
      "stateMutability": "view",
      "type": "function"
    },
    {
      "inputs": [],
      "name": "merkleRoot",
      "outputs": [
        {
          "internalType": "bytes32",
          "name": "",
          "type": "bytes32"
        }
      ],
      "stateMutability": "view",
      "type": "function"
    }
  ],
  "transactionHash": "0x2ee7b5040551cc66a9b7404fb5cad58b277e1659330a913383ff6259bd949726",
  "args": [
    "0xa8a3d8b777c2f0bc7fbcc14a0ac529b4ab20b43ce0507047777219a936ceca3e"
  ],
  "numDeployments": 1,
  "solcInputHash": "a788649859c3fbb94af4fba4763dca55",
  "bytecode": "0x60a060405234801561001057600080fd5b506040516105ea3803806105ea8339818101604052602081101561003357600080fd5b5051608052608051610593610057600039806101a8528061030952506105936000f3fe608060405234801561001057600080fd5b50600436106100415760003560e01c80632eb4a7ab146100465780639e34070f14610060578063f6bf2a5914610091575b600080fd5b61004e6101a6565b60408051918252519081900360200190f35b61007d6004803603602081101561007657600080fd5b50356101ca565b604080519115158252519081900360200190f35b6101a4600480360360a08110156100a757600080fd5b8135916001600160a01b0360208201351691604082013591908101906080810160608201356401000000008111156100de57600080fd5b8201836020820111156100f057600080fd5b8035906020019184600183028401116401000000008311171561011257600080fd5b91908080601f016020809104026020016040519081016040528093929190818152602001838380828437600092019190915250929594936020810193503591505064010000000081111561016557600080fd5b82018360208201111561017757600080fd5b8035906020019184602083028401116401000000008311171561019957600080fd5b5090925090506101f0565b005b7f000000000000000000000000000000000000000000000000000000000000000081565b6101008104600090815260208190526040902054600160ff9092169190911b9081161490565b6101f9866101ca565b156102355760405162461bcd60e51b81526004018080602001828103825260288152602001806105156028913960400191505060405180910390fd5b60008686868660405160200180858152602001846001600160a01b03166001600160a01b031660601b815260140183815260200182805190602001908083835b602083106102945780518252601f199092019160209182019101610275565b6001836020036101000a0380198251168184511680821785525050505050509050019450505050506040516020818303038152906040528051906020012090506103348383808060200260200160405190810160405280939291908181526020018383602002808284376000920191909152507f000000000000000000000000000000000000000000000000000000000000000092508591506104449050565b61036f5760405162461bcd60e51b815260040180806020018281038252602181526020018061053d6021913960400191505060405180910390fd5b610378876104ed565b7fee563d8e532abc293fca2fdeb41c25180305bddcf9206c167dab3e155aaf17138787878760405180858152602001846001600160a01b03166001600160a01b0316815260200183815260200180602001828103825283818151815260200191508051906020019080838360005b838110156103fe5781810151838201526020016103e6565b50505050905090810190601f16801561042b5780820380516001836020036101000a031916815260200191505b509550505050505060405180910390a150505050505050565b600081815b85518110156104e257600086828151811061046057fe5b602002602001015190508083116104a757828160405160200180838152602001828152602001925050506040516020818303038152906040528051906020012092506104d9565b808360405160200180838152602001828152602001925050506040516020818303038152906040528051906020012092505b50600101610449565b509092149392505050565b610100810460009081526020819052604090208054600160ff9093169290921b909117905556fe4d65726b6c654469737472696275746f723a2044726f7020616c726561647920636c61696d65642e4d65726b6c654469737472696275746f723a20496e76616c69642070726f6f662ea264697066735822122052603f610a5c102aafa0d15406307bb29a3ab1ee9cd19f2bc853f042a4419dc764736f6c634300060b0033",
  "devdoc": {
    "kind": "dev",
    "methods": {},
    "version": 1
  },
  "userdoc": {
    "kind": "user",
    "methods": {},
    "version": 1
  },
  "storageLayout": {
    "storage": [
      {
        "astId": 1092,
        "contract": "contracts/MerkleDistributor.sol:MerkleDistributor",
        "label": "claimedBitMap",
        "offset": 0,
        "slot": "0",
        "type": "t_mapping(t_uint256,t_uint256)"
      }
    ],
    "types": {
      "t_mapping(t_uint256,t_uint256)": {
        "encoding": "mapping",
        "key": "t_uint256",
        "label": "mapping(uint256 => uint256)",
        "numberOfBytes": "32",
        "value": "t_uint256"
      },
      "t_uint256": {
        "encoding": "inplace",
        "label": "uint256",
        "numberOfBytes": "32"
      }
    }
  }
}