{
  "address": "0xCDa96c9D9616Ecce52CbBA4dfC9B0D88423099Fa",
  "abi": [
    {
      "inputs": [
        {
          "internalType": "bytes32",
          "name": "merkleRoot_",
          "type": "bytes32"
        }
      ],
      "stateMutability": "nonpayable",
      "type": "constructor"
    },
    {
      "anonymous": false,
      "inputs": [
        {
          "indexed": true,
          "internalType": "address",
          "name": "owner",
          "type": "address"
        },
        {
          "indexed": true,
          "internalType": "address",
          "name": "approved",
          "type": "address"
        },
        {
          "indexed": true,
          "internalType": "uint256",
          "name": "tokenId",
          "type": "uint256"
        }
      ],
      "name": "Approval",
      "type": "event"
    },
    {
      "anonymous": false,
      "inputs": [
        {
          "indexed": true,
          "internalType": "address",
          "name": "owner",
          "type": "address"
        },
        {
          "indexed": true,
          "internalType": "address",
          "name": "operator",
          "type": "address"
        },
        {
          "indexed": false,
          "internalType": "bool",
          "name": "approved",
          "type": "bool"
        }
      ],
      "name": "ApprovalForAll",
      "type": "event"
    },
    {
      "anonymous": false,
      "inputs": [
        {
          "indexed": false,
          "internalType": "uint256",
          "name": "index",
          "type": "uint256"
        },
        {
          "indexed": false,
          "internalType": "address",
          "name": "account",
          "type": "address"
        },
        {
          "indexed": false,
          "internalType": "uint256",
          "name": "score",
          "type": "uint256"
        },
        {
          "indexed": false,
          "internalType": "string",
          "name": "creature",
          "type": "string"
        }
      ],
      "name": "Claimed",
      "type": "event"
    },
    {
      "anonymous": false,
      "inputs": [
        {
          "indexed": true,
          "internalType": "address",
          "name": "previousOwner",
          "type": "address"
        },
        {
          "indexed": true,
          "internalType": "address",
          "name": "newOwner",
          "type": "address"
        }
      ],
      "name": "OwnershipTransferred",
      "type": "event"
    },
    {
      "anonymous": false,
      "inputs": [
        {
          "indexed": true,
          "internalType": "address",
          "name": "from",
          "type": "address"
        },
        {
          "indexed": true,
          "internalType": "address",
          "name": "to",
          "type": "address"
        },
        {
          "indexed": true,
          "internalType": "uint256",
          "name": "tokenId",
          "type": "uint256"
        }
      ],
      "name": "Transfer",
      "type": "event"
    },
    {
      "inputs": [
        {
          "internalType": "address",
          "name": "to",
          "type": "address"
        },
        {
          "internalType": "uint256",
          "name": "tokenId",
          "type": "uint256"
        }
      ],
      "name": "approve",
      "outputs": [],
      "stateMutability": "nonpayable",
      "type": "function"
    },
    {
      "inputs": [
        {
          "internalType": "address",
          "name": "owner",
          "type": "address"
        }
      ],
      "name": "balanceOf",
      "outputs": [
        {
          "internalType": "uint256",
          "name": "",
          "type": "uint256"
        }
      ],
      "stateMutability": "view",
      "type": "function"
    },
    {
      "inputs": [
        {
          "internalType": "uint256",
          "name": "index",
          "type": "uint256"
        },
        {
          "internalType": "address",
          "name": "account",
          "type": "address"
        },
        {
          "internalType": "uint256",
          "name": "score",
          "type": "uint256"
        },
        {
          "internalType": "string",
          "name": "creature",
          "type": "string"
        },
        {
          "internalType": "bytes32[]",
          "name": "merkleProof",
          "type": "bytes32[]"
        }
      ],
      "name": "claim",
      "outputs": [],
      "stateMutability": "nonpayable",
      "type": "function"
    },
    {
      "inputs": [],
      "name": "count",
      "outputs": [
        {
          "internalType": "uint256",
          "name": "",
          "type": "uint256"
        }
      ],
      "stateMutability": "view",
      "type": "function"
    },
    {
      "inputs": [
        {
          "internalType": "uint256",
          "name": "tokenId",
          "type": "uint256"
        }
      ],
      "name": "getApproved",
      "outputs": [
        {
          "internalType": "address",
          "name": "",
          "type": "address"
        }
      ],
      "stateMutability": "view",
      "type": "function"
    },
    {
      "inputs": [
        {
          "internalType": "address",
          "name": "owner",
          "type": "address"
        },
        {
          "internalType": "address",
          "name": "operator",
          "type": "address"
        }
      ],
      "name": "isApprovedForAll",
      "outputs": [
        {
          "internalType": "bool",
          "name": "",
          "type": "bool"
        }
      ],
      "stateMutability": "view",
      "type": "function"
    },
    {
      "inputs": [
        {
          "internalType": "uint256",
          "name": "index",
          "type": "uint256"
        }
      ],
      "name": "isClaimed",
      "outputs": [
        {
          "internalType": "bool",
          "name": "",
          "type": "bool"
        }
      ],
      "stateMutability": "view",
      "type": "function"
    },
    {
      "inputs": [],
      "name": "merkleRoot",
      "outputs": [
        {
          "internalType": "bytes32",
          "name": "",
          "type": "bytes32"
        }
      ],
      "stateMutability": "view",
      "type": "function"
    },
    {
      "inputs": [],
      "name": "name",
      "outputs": [
        {
          "internalType": "string",
          "name": "",
          "type": "string"
        }
      ],
      "stateMutability": "view",
      "type": "function"
    },
    {
      "inputs": [],
      "name": "owner",
      "outputs": [
        {
          "internalType": "address",
          "name": "",
          "type": "address"
        }
      ],
      "stateMutability": "view",
      "type": "function"
    },
    {
      "inputs": [
        {
          "internalType": "uint256",
          "name": "tokenId",
          "type": "uint256"
        }
      ],
      "name": "ownerOf",
      "outputs": [
        {
          "internalType": "address",
          "name": "",
          "type": "address"
        }
      ],
      "stateMutability": "view",
      "type": "function"
    },
    {
      "inputs": [],
      "name": "renounceOwnership",
      "outputs": [],
      "stateMutability": "nonpayable",
      "type": "function"
    },
    {
      "inputs": [
        {
          "internalType": "address",
          "name": "from",
          "type": "address"
        },
        {
          "internalType": "address",
          "name": "to",
          "type": "address"
        },
        {
          "internalType": "uint256",
          "name": "tokenId",
          "type": "uint256"
        }
      ],
      "name": "safeTransferFrom",
      "outputs": [],
      "stateMutability": "nonpayable",
      "type": "function"
    },
    {
      "inputs": [
        {
          "internalType": "address",
          "name": "from",
          "type": "address"
        },
        {
          "internalType": "address",
          "name": "to",
          "type": "address"
        },
        {
          "internalType": "uint256",
          "name": "tokenId",
          "type": "uint256"
        },
        {
          "internalType": "bytes",
          "name": "_data",
          "type": "bytes"
        }
      ],
      "name": "safeTransferFrom",
      "outputs": [],
      "stateMutability": "nonpayable",
      "type": "function"
    },
    {
      "inputs": [
        {
          "internalType": "address",
          "name": "operator",
          "type": "address"
        },
        {
          "internalType": "bool",
          "name": "approved",
          "type": "bool"
        }
      ],
      "name": "setApprovalForAll",
      "outputs": [],
      "stateMutability": "nonpayable",
      "type": "function"
    },
    {
      "inputs": [
        {
          "internalType": "bytes4",
          "name": "interfaceId",
          "type": "bytes4"
        }
      ],
      "name": "supportsInterface",
      "outputs": [
        {
          "internalType": "bool",
          "name": "",
          "type": "bool"
        }
      ],
      "stateMutability": "view",
      "type": "function"
    },
    {
      "inputs": [],
      "name": "symbol",
      "outputs": [
        {
          "internalType": "string",
          "name": "",
          "type": "string"
        }
      ],
      "stateMutability": "view",
      "type": "function"
    },
    {
      "inputs": [
        {
          "internalType": "uint256",
          "name": "tokenId",
          "type": "uint256"
        }
      ],
      "name": "tokenURI",
      "outputs": [
        {
          "internalType": "string",
          "name": "",
          "type": "string"
        }
      ],
      "stateMutability": "view",
      "type": "function"
    },
    {
      "inputs": [
        {
          "internalType": "address",
          "name": "from",
          "type": "address"
        },
        {
          "internalType": "address",
          "name": "to",
          "type": "address"
        },
        {
          "internalType": "uint256",
          "name": "tokenId",
          "type": "uint256"
        }
      ],
      "name": "transferFrom",
      "outputs": [],
      "stateMutability": "nonpayable",
      "type": "function"
    },
    {
      "inputs": [
        {
          "internalType": "address",
          "name": "newOwner",
          "type": "address"
        }
      ],
      "name": "transferOwnership",
      "outputs": [],
      "stateMutability": "nonpayable",
      "type": "function"
    }
  ],
  "transactionHash": "0x49b8ce0c1700c9620a41b6d4bd42ff3927dfc9ac64b08a3f71038aa400280c4c",
  "args": [
    "0x1fe4549be478cc1af80780fc09cb768475822ca88620eb584119767377b7b00d"
  ],
  "numDeployments": 3,
  "solcInputHash": "82d9ab2f4bed9002f1220479fb70cb10",
  "bytecode": "0x60a060405260006007553480156200001657600080fd5b5060405162003e0338038062003e03833981016040819052620000399162000cce565b604080518082018252601a81527f4d657461637261667420736561736f6e2070617373203230323200000000000060208083019182528351808501909452600684526526a19918191960d11b9084015281519192916200009c9160009162000c28565b508051620000b290600190602084019062000c28565b505050620000cf620000c962000bd260201b60201c565b62000bd6565b60808190526040805160608101909152603080825262003c8360208301396009604051620000fd9062000d32565b908152602001604051809103902090805190602001906200012092919062000c28565b5060405180606001604052806030815260200162003b636030913960096040516200014b9062000dae565b908152602001604051809103902090805190602001906200016e92919062000c28565b5060405180606001604052806030815260200162003b93603091396009604051620001999062000d64565b90815260200160405180910390209080519060200190620001bc92919062000c28565b5060405180606001604052806030815260200162003893603091396009604051620001e79062000f26565b908152602001604051809103902090805190602001906200020a92919062000c28565b5060405180606001604052806030815260200162003ad3603091396009604051620002359062001013565b908152602001604051809103902090805190602001906200025892919062000c28565b50604051806060016040528060308152602001620039b3603091396009604051620002839062000f3b565b90815260200160405180910390209080519060200190620002a692919062000c28565b5060405180606001604052806030815260200162003bc3603091396009604051620002d19062000dc6565b90815260200160405180910390209080519060200190620002f492919062000c28565b5060405180606001604052806030815260200162003c236030913960096040516200031f9062000fb0565b908152602001604051809103902090805190602001906200034292919062000c28565b50604051806060016040528060308152602001620037a36030913960096040516200036d9062000d1d565b908152602001604051809103902090805190602001906200039092919062000c28565b5060405180606001604052806030815260200162003803603091396009604051620003bb9062000ef4565b90815260200160405180910390209080519060200190620003de92919062000c28565b5060405180606001604052806030815260200162003b33603091396009604051620004099062000f50565b908152602001604051809103902090805190602001906200042c92919062000c28565b5060405180606001604052806030815260200162003ce3603091396009604051620004579062000e92565b908152602001604051809103902090805190602001906200047a92919062000c28565b5060405180606001604052806030815260200162003863603091396009604051620004a59062000e47565b90815260200160405180910390209080519060200190620004c892919062000c28565b50604051806060016040528060308152602001620038f3603091396009604051620004f39062000ff9565b908152602001604051809103902090805190602001906200051692919062000c28565b50604051806060016040528060308152602001620037d3603091396009604051620005419062000ec0565b908152602001604051809103902090805190602001906200056492919062000c28565b5060405180606001604052806030815260200162003da36030913960096040516200058f9062000df5565b90815260200160405180910390209080519060200190620005b292919062000c28565b5060405180606001604052806030815260200162003953603091396009604051620005dd9062000cff565b908152602001604051809103902090805190602001906200060092919062000c28565b5060405180606001604052806030815260200162003d136030913960096040516200062b9062000e2a565b908152602001604051809103902090805190602001906200064e92919062000c28565b5060405180606001604052806030815260200162003a73603091396009604051620006799062000fc6565b908152602001604051809103902090805190602001906200069c92919062000c28565b5060405180606001604052806030815260200162003a13603091396009604051620006c79062000d49565b90815260200160405180910390209080519060200190620006ea92919062000c28565b5060405180606001604052806030815260200162003773603091396009604051620007159062000ddb565b908152602001604051809103902090805190602001906200073892919062000c28565b5060405180606001604052806030815260200162003bf3603091396009604051620007639062000d93565b908152602001604051809103902090805190602001906200078692919062000c28565b5060405180606001604052806030815260200162003983603091396009604051620007b19062000e60565b90815260200160405180910390209080519060200190620007d492919062000c28565b5060405180606001604052806030815260200162003aa3603091396009604051620007ff9062000ed9565b908152602001604051809103902090805190602001906200082292919062000c28565b50604051806060016040528060308152602001620038336030913960096040516200084d9062000ce7565b908152602001604051809103902090805190602001906200087092919062000c28565b5060405180606001604052806030815260200162003c536030913960096040516200089b9062000f97565b90815260200160405180910390209080519060200190620008be92919062000c28565b5060405180606001604052806030815260200162003b03603091396009604051620008e99062000e12565b908152602001604051809103902090805190602001906200090c92919062000c28565b5060405180606001604052806030815260200162003dd3603091396009604051620009379062000d7b565b908152602001604051809103902090805190602001906200095a92919062000c28565b5060405180606001604052806030815260200162003cb3603091396009604051620009859062000fe0565b90815260200160405180910390209080519060200190620009a892919062000c28565b50604051806060016040528060308152602001620038c3603091396009604051620009d39062000f6a565b90815260200160405180910390209080519060200190620009f692919062000c28565b5060405180606001604052806030815260200162003d4360309139600960405162000a219062000f0d565b9081526020016040518091039020908051906020019062000a4492919062000c28565b5060405180606001604052806030815260200162003a4360309139600960405162000a6f9062001042565b9081526020016040518091039020908051906020019062000a9292919062000c28565b50604051806060016040528060308152602001620039e360309139600960405162000abd9062001029565b9081526020016040518091039020908051906020019062000ae092919062000c28565b5060405180606001604052806030815260200162003d7360309139600960405162000b0b9062000f82565b9081526020016040518091039020908051906020019062000b2e92919062000c28565b506040518060600160405280603081526020016200392360309139600960405162000b599062000e7c565b9081526020016040518091039020908051906020019062000b7c92919062000c28565b506040518060600160405280603081526020016200374360309139600960405162000ba79062000eab565b9081526020016040518091039020908051906020019062000bca92919062000c28565b505062001099565b3390565b600680546001600160a01b038381166001600160a01b0319831681179093556040519116919082907f8be0079c531659141344cd1fd0a4f28419497f9722a3daafe3b4186f6b6457e090600090a35050565b82805462000c36906200105c565b90600052602060002090601f01602090048101928262000c5a576000855562000ca5565b82601f1062000c7557805160ff191683800117855562000ca5565b8280016001018555821562000ca5579182015b8281111562000ca557825182559160200191906001019062000c88565b5062000cb392915062000cb7565b5090565b5b8082111562000cb3576000815560010162000cb8565b60006020828403121562000ce0578081fd5b5051919050565b6b2a3ab93a3632a3b7b63232b760a11b8152600c0190565b71456e646572447261676f6e53696c7665727960701b815260120190565b6821b7bba1b7b83832b960b91b815260090190565b6a29b634b6b2a3b7b63232b760a91b8152600b0190565b6e456e6465726d616e53696c7665727960881b8152600f0190565b6a29b634b6b2a1b7b83832b960a91b8152600b0190565b6b2bb4ba3432b923b7b63232b760a11b8152600c0190565b6e24b937b723b7b632b6a3b7b63232b760891b8152600f0190565b6b536c696d6553696c7665727960a01b8152600c0190565b6821b7bba3b7b63232b760b91b815260090190565b6d22b73232b936b0b721b7b83832b960911b8152600e0190565b7022b73232b9223930b3b7b723b7b63232b760791b815260110190565b6b2a3ab93a3632a1b7b83832b960a11b8152600c0190565b7022b73232b9223930b3b7b721b7b83832b960791b815260110190565b6c2237b6383434b723b7b63232b760991b8152600d0190565b6f49726f6e476f6c656d53696c7665727960801b815260100190565b6950696753696c7665727960b01b8152600a0190565b6c21b932b2b832b921b7b83832b960991b8152600d0190565b682834b3a1b7b83832b960b91b815260090190565b6c2237b6383434b721b7b83832b960991b8152600d0190565b6e24b937b723b7b632b6a1b7b83832b960891b8152600f0190565b6c21b932b2b832b923b7b63232b760991b8152600d0190565b6c20bc37b637ba3623b7b63232b760991b8152600d0190565b682132b2a3b7b63232b760b91b815260090190565b682132b2a1b7b83832b960b91b815260090190565b6d4372656570657253696c7665727960901b8152600e0190565b6b2bb4ba3432b921b7b83832b960a11b8152600c0190565b682834b3a3b7b63232b760b91b815260090190565b6c547572746c6553696c7665727960981b8152600d0190565b69436f7753696c7665727960b01b8152600a0190565b6d22b73232b936b0b723b7b63232b760911b8152600e0190565b6c57697468657253696c7665727960981b8152600d0190565b6d446f6c7068696e53696c7665727960901b8152600e0190565b6942656553696c7665727960b01b8152600a0190565b6c20bc37b637ba3621b7b83832b960991b8152600d0190565b6d41786f6c6f746c53696c7665727960901b8152600e0190565b6002810460018216806200107157607f821691505b602082108114156200109357634e487b7160e01b600052602260045260246000fd5b50919050565b608051612687620010bc6000396000818161051a0152610a6201526126876000f3fe608060405234801561001057600080fd5b506004361061016c5760003560e01c8063715018a6116100cd578063b88d4fde11610081578063e985e9c511610066578063e985e9c5146102b1578063f2fde38b146102c4578063f6bf2a59146102d75761016c565b8063b88d4fde1461028b578063c87b56dd1461029e5761016c565b806395d89b41116100b257806395d89b411461025d5780639e34070f14610265578063a22cb465146102785761016c565b8063715018a61461024d5780638da5cb5b146102555761016c565b806323b872dd1161012457806342842e0e1161010957806342842e0e146102145780636352211e1461022757806370a082311461023a5761016c565b806323b872dd146101f95780632eb4a7ab1461020c5761016c565b806306fdde031161015557806306fdde03146101af578063081812fc146101c4578063095ea7b3146101e45761016c565b806301ffc9a71461017157806306661abd1461019a575b600080fd5b61018461017f3660046118f7565b6102ea565b6040516101919190611efd565b60405180910390f35b6101a2610364565b6040516101919190611f08565b6101b761036a565b6040516101919190611f11565b6101d76101d236600461192f565b6103fc565b6040516101919190611ead565b6101f76101f23660046118ce565b610448565b005b6101f76102073660046117e0565b6104e0565b6101a2610518565b6101f76102223660046117e0565b61053c565b6101d761023536600461192f565b610557565b6101a261024836600461178d565b61058c565b6101f76105d0565b6101d761061b565b6101b761062a565b61018461027336600461192f565b610639565b6101f7610286366004611894565b61067a565b6101f761029936600461181b565b610690565b6101b76102ac36600461192f565b6106cf565b6101846102bf3660046117ae565b610937565b6101f76102d236600461178d565b610965565b6101f76102e5366004611947565b6109d6565b60006001600160e01b031982167f80ac58cd00000000000000000000000000000000000000000000000000000000148061034d57506001600160e01b031982167f5b5e139f00000000000000000000000000000000000000000000000000000000145b8061035c575061035c82610b71565b90505b919050565b60075481565b6060600080546103799061254f565b80601f01602080910402602001604051908101604052809291908181526020018280546103a59061254f565b80156103f25780601f106103c7576101008083540402835291602001916103f2565b820191906000526020600020905b8154815290600101906020018083116103d557829003601f168201915b5050505050905090565b600061040782610ba3565b61042c5760405162461bcd60e51b8152600401610423906122fb565b60405180910390fd5b506000908152600460205260409020546001600160a01b031690565b600061045382610557565b9050806001600160a01b0316836001600160a01b031614156104875760405162461bcd60e51b8152600401610423906123d9565b806001600160a01b0316610499610bc0565b6001600160a01b031614806104b557506104b5816102bf610bc0565b6104d15760405162461bcd60e51b8152600401610423906121af565b6104db8383610bc4565b505050565b6104f16104eb610bc0565b82610c3f565b61050d5760405162461bcd60e51b815260040161042390612436565b6104db838383610cc4565b7f000000000000000000000000000000000000000000000000000000000000000081565b6104db83838360405180602001604052806000815250610690565b6000818152600260205260408120546001600160a01b03168061035c5760405162461bcd60e51b815260040161042390612269565b60006001600160a01b0382166105b45760405162461bcd60e51b81526004016104239061220c565b506001600160a01b031660009081526003602052604090205490565b6105d8610bc0565b6001600160a01b03166105e961061b565b6001600160a01b03161461060f5760405162461bcd60e51b815260040161042390612347565b6106196000610dfe565b565b6006546001600160a01b031690565b6060600180546103799061254f565b600080610648610100846124d9565b90506000610658610100856125a5565b60009283526008602052604090922054600190921b9182169091149392505050565b61068c610685610bc0565b8383610e5d565b5050565b6106a161069b610bc0565b83610c3f565b6106bd5760405162461bcd60e51b815260040161042390612436565b6106c984848484610f00565b50505050565b60606000600a60008481526020019081526020016000206040518060600160405290816000820154815260200160018201805461070b9061254f565b80601f01602080910402602001604051908101604052809291908181526020018280546107379061254f565b80156107845780601f1061075957610100808354040283529160200191610784565b820191906000526020600020905b81548152906001019060200180831161076757829003601f168201915b50505050508152602001600282015481525050905060006107a88260000151610f33565b905060008260200151826107bb87610ff4565b6040516020016107cd93929190611ac1565b6040516020818303038152906040529050600060098460200151846040516020016107f9929190611a92565b60408051601f198184030181529082905261081391611a76565b9081526020016040518091039020805461082c9061254f565b80601f01602080910402602001604051908101604052809291908181526020018280546108589061254f565b80156108a55780601f1061087a576101008083540402835291602001916108a5565b820191906000526020600020905b81548152906001019060200180831161088857829003601f168201915b50505050509050600061090983836108c08860000151610ff4565b6020808a01516040516108d693928b9101611cb9565b60408051601f19818403018152908290526108f5939291602001611b58565b604051602081830303815290604052611143565b90508060405160200161091c9190611e22565b60405160208183030381529060405295505050505050919050565b6001600160a01b03918216600090815260056020908152604080832093909416825291909152205460ff1690565b61096d610bc0565b6001600160a01b031661097e61061b565b6001600160a01b0316146109a45760405162461bcd60e51b815260040161042390612347565b6001600160a01b0381166109ca5760405162461bcd60e51b815260040161042390611f81565b6109d381610dfe565b50565b6109df86610639565b156109fc5760405162461bcd60e51b815260040161042390612015565b600086868686604051602001610a159493929190611e67565b604051602081830303815290604052805190602001209050610a8d8383808060200260200160405190810160405280939291908181526020018383602002808284376000920191909152507f000000000000000000000000000000000000000000000000000000000000000092508591506112ee9050565b610aa95760405162461bcd60e51b815260040161042390612152565b610ab287611304565b610abe86600754611342565b6040805160608101825286815260208082018781528284018b90526007546000908152600a8352939093208251815592518051929392610b04926001850192019061166d565b5060408201518160020155905050600160076000828254610b2591906124c1565b90915550506040517fee563d8e532abc293fca2fdeb41c25180305bddcf9206c167dab3e155aaf171390610b60908990899089908990612493565b60405180910390a150505050505050565b6001600160e01b031981167f01ffc9a70000000000000000000000000000000000000000000000000000000014919050565b6000908152600260205260409020546001600160a01b0316151590565b3390565b6000818152600460205260409020805473ffffffffffffffffffffffffffffffffffffffff19166001600160a01b0384169081179091558190610c0682610557565b6001600160a01b03167f8c5be1e5ebec7d5bd14f71427d1e84f3dd0314c0f7b2291e5b200ac8c7c3b92560405160405180910390a45050565b6000610c4a82610ba3565b610c665760405162461bcd60e51b815260040161042390612106565b6000610c7183610557565b9050806001600160a01b0316846001600160a01b03161480610cac5750836001600160a01b0316610ca1846103fc565b6001600160a01b0316145b80610cbc5750610cbc8185610937565b949350505050565b826001600160a01b0316610cd782610557565b6001600160a01b031614610cfd5760405162461bcd60e51b81526004016104239061237c565b6001600160a01b038216610d235760405162461bcd60e51b815260040161042390612072565b610d2e8383836104db565b610d39600082610bc4565b6001600160a01b0383166000908152600360205260408120805460019290610d6290849061250c565b90915550506001600160a01b0382166000908152600360205260408120805460019290610d909084906124c1565b9091555050600081815260026020526040808220805473ffffffffffffffffffffffffffffffffffffffff19166001600160a01b0386811691821790925591518493918716917fddf252ad1be2c89b69c2b068fc378daa952ba7f163c4a11628f55a4df523b3ef91a4505050565b600680546001600160a01b0383811673ffffffffffffffffffffffffffffffffffffffff19831681179093556040519116919082907f8be0079c531659141344cd1fd0a4f28419497f9722a3daafe3b4186f6b6457e090600090a35050565b816001600160a01b0316836001600160a01b03161415610e8f5760405162461bcd60e51b8152600401610423906120cf565b6001600160a01b0383811660008181526005602090815260408083209487168084529490915290819020805460ff1916851515179055517f17307eab39ab6107e8899845ad3d59bd9653f200f220920489ca2b5937696c3190610ef3908590611efd565b60405180910390a3505050565b610f0b848484610cc4565b610f178484848461135c565b6106c95760405162461bcd60e51b815260040161042390611f24565b60606107d08210610f78575060408051808201909152600681527f476f6c64656e0000000000000000000000000000000000000000000000000000602082015261035f565b6103e88210610fbb575060408051808201909152600781527f53696c7665727900000000000000000000000000000000000000000000000000602082015261035f565b505060408051808201909152600681527f436f707065720000000000000000000000000000000000000000000000000000602082015290565b606081611035575060408051808201909152600181527f3000000000000000000000000000000000000000000000000000000000000000602082015261035f565b8160005b811561105f57806110498161258a565b91506110589050600a836124d9565b9150611039565b60008167ffffffffffffffff81111561108857634e487b7160e01b600052604160045260246000fd5b6040519080825280601f01601f1916602001820160405280156110b2576020820181803683370190505b5090505b8415610cbc576110c760018361250c565b91506110d4600a866125a5565b6110df9060306124c1565b60f81b81838151811061110257634e487b7160e01b600052603260045260246000fd5b60200101907effffffffffffffffffffffffffffffffffffffffffffffffffffffffffffff1916908160001a90535061113c600a866124d9565b94506110b6565b80516060908061116357505060408051602081019091526000815261035f565b600060036111728360026124c1565b61117c91906124d9565b6111879060046124ed565b905060006111968260206124c1565b67ffffffffffffffff8111156111bc57634e487b7160e01b600052604160045260246000fd5b6040519080825280601f01601f1916602001820160405280156111e6576020820181803683370190505b5090506000604051806060016040528060408152602001612612604091399050600181016020830160005b86811015611272576003818a01810151603f601282901c8116860151600c83901c8216870151600684901c831688015192909316870151600891821b60ff94851601821b92841692909201901b91160160e01b835260049092019101611211565b50600386066001811461128c57600281146112b8576112e0565b7f3d3d0000000000000000000000000000000000000000000000000000000000006001198301526112e0565b7f3d000000000000000000000000000000000000000000000000000000000000006000198301525b505050918152949350505050565b6000826112fb8584611490565b14949350505050565b6000611312610100836124d9565b90506000611322610100846125a5565b6000928352600860205260409092208054600190931b9092179091555050565b61068c828260405180602001604052806000815250611548565b6000611370846001600160a01b031661157b565b1561148557836001600160a01b031663150b7a0261138c610bc0565b8786866040518563ffffffff1660e01b81526004016113ae9493929190611ec1565b602060405180830381600087803b1580156113c857600080fd5b505af19250505080156113f8575060408051601f3d908101601f191682019092526113f591810190611913565b60015b611452573d808015611426576040519150601f19603f3d011682016040523d82523d6000602084013e61142b565b606091505b50805161144a5760405162461bcd60e51b815260040161042390611f24565b805181602001fd5b6001600160e01b0319167f150b7a0200000000000000000000000000000000000000000000000000000000149050610cbc565b506001949350505050565b600081815b84518110156115405760008582815181106114c057634e487b7160e01b600052603260045260246000fd5b602002602001015190508083116115015782816040516020016114e4929190611a68565b60405160208183030381529060405280519060200120925061152d565b8083604051602001611514929190611a68565b6040516020818303038152906040528051906020012092505b50806115388161258a565b915050611495565b509392505050565b6115528383611581565b61155f600084848461135c565b6104db5760405162461bcd60e51b815260040161042390611f24565b3b151590565b6001600160a01b0382166115a75760405162461bcd60e51b8152600401610423906122c6565b6115b081610ba3565b156115cd5760405162461bcd60e51b815260040161042390611fde565b6115d9600083836104db565b6001600160a01b03821660009081526003602052604081208054600192906116029084906124c1565b9091555050600081815260026020526040808220805473ffffffffffffffffffffffffffffffffffffffff19166001600160a01b03861690811790915590518392907fddf252ad1be2c89b69c2b068fc378daa952ba7f163c4a11628f55a4df523b3ef908290a45050565b8280546116799061254f565b90600052602060002090601f01602090048101928261169b57600085556116e1565b82601f106116b457805160ff19168380011785556116e1565b828001600101855582156116e1579182015b828111156116e15782518255916020019190600101906116c6565b506116ed9291506116f1565b5090565b5b808211156116ed57600081556001016116f2565b600067ffffffffffffffff80841115611721576117216125e5565b604051601f8501601f191681016020018281118282101715611745576117456125e5565b60405284815291508183850186101561175d57600080fd5b8484602083013760006020868301015250509392505050565b80356001600160a01b038116811461035f57600080fd5b60006020828403121561179e578081fd5b6117a782611776565b9392505050565b600080604083850312156117c0578081fd5b6117c983611776565b91506117d760208401611776565b90509250929050565b6000806000606084860312156117f4578081fd5b6117fd84611776565b925061180b60208501611776565b9150604084013590509250925092565b60008060008060808587031215611830578081fd5b61183985611776565b935061184760208601611776565b925060408501359150606085013567ffffffffffffffff811115611869578182fd5b8501601f81018713611879578182fd5b61188887823560208401611706565b91505092959194509250565b600080604083850312156118a6578182fd5b6118af83611776565b9150602083013580151581146118c3578182fd5b809150509250929050565b600080604083850312156118e0578182fd5b6118e983611776565b946020939093013593505050565b600060208284031215611908578081fd5b81356117a7816125fb565b600060208284031215611924578081fd5b81516117a7816125fb565b600060208284031215611940578081fd5b5035919050565b60008060008060008060a0878903121561195f578182fd5b8635955061196f60208801611776565b945060408701359350606087013567ffffffffffffffff80821115611992578384fd5b818901915089601f8301126119a5578384fd5b6119b48a833560208501611706565b945060808901359150808211156119c9578384fd5b818901915089601f8301126119dc578384fd5b8135818111156119ea578485fd5b8a602080830285010111156119fd578485fd5b6020830194508093505050509295509295509295565b60008151808452611a2b816020860160208601612523565b601f01601f19169290920160200192915050565b7f227d000000000000000000000000000000000000000000000000000000000000815260020190565b918252602082015260400190565b60008251611a88818460208701612523565b9190910192915050565b60008351611aa4818460208801612523565b835190830190611ab8818360208801612523565b01949350505050565b60008451611ad3818460208901612523565b7f20000000000000000000000000000000000000000000000000000000000000009083019081528451611b0d816001840160208901612523565b7f2023000000000000000000000000000000000000000000000000000000000000600192909101918201528351611b4b816003840160208801612523565b0160030195945050505050565b60007f7b226e616d65223a20220000000000000000000000000000000000000000000082528451611b9081600a850160208901612523565b80830190507f222c00000000000000000000000000000000000000000000000000000000000080600a8301527f226465736372697074696f6e223a20224d65746163726166742053756d6d6172600c8301527f79222c0000000000000000000000000000000000000000000000000000000000602c8301527f22696d616765223a220000000000000000000000000000000000000000000000602f8301528551611c41816038850160208a01612523565b60389201918201527f2261747472696275746573223a205b0000000000000000000000000000000000603a8201528351611c82816049840160208801612523565b7f5d7d00000000000000000000000000000000000000000000000000000000000060499290910191820152604b0195945050505050565b60007f7b2274726169745f74797065223a202253636f7265222c202276616c7565223a82527f202200000000000000000000000000000000000000000000000000000000000060208301528451611d17816022850160208901612523565b80830190507f227d2c00000000000000000000000000000000000000000000000000000000008060228301527f7b2274726169745f74797065223a20224372656174757265222c202276616c7560258301527f65223a202200000000000000000000000000000000000000000000000000000060458301528551611da281604a850160208a01612523565b604a9201918201527f7b2274726169745f74797065223a202254657874757265222c202276616c7565604d8201527f223a202200000000000000000000000000000000000000000000000000000000606d8201528351611e09816071840160208801612523565b611e17607182840101611a3f565b979650505050505050565b60007f646174613a6170706c69636174696f6e2f6a736f6e3b6261736536342c00000082528251611e5a81601d850160208701612523565b91909101601d0192915050565b60008582526bffffffffffffffffffffffff198560601b1660208301528360348301528251611e9d816054850160208701612523565b9190910160540195945050505050565b6001600160a01b0391909116815260200190565b60006001600160a01b03808716835280861660208401525083604083015260806060830152611ef36080830184611a13565b9695505050505050565b901515815260200190565b90815260200190565b6000602082526117a76020830184611a13565b60208082526032908201527f4552433732313a207472616e7366657220746f206e6f6e20455243373231526560408201527f63656976657220696d706c656d656e7465720000000000000000000000000000606082015260800190565b60208082526026908201527f4f776e61626c653a206e6577206f776e657220697320746865207a65726f206160408201527f6464726573730000000000000000000000000000000000000000000000000000606082015260800190565b6020808252601c908201527f4552433732313a20746f6b656e20616c7265616479206d696e74656400000000604082015260600190565b60208082526028908201527f4d65726b6c654469737472696275746f723a2044726f7020616c72656164792060408201527f636c61696d65642e000000000000000000000000000000000000000000000000606082015260800190565b60208082526024908201527f4552433732313a207472616e7366657220746f20746865207a65726f2061646460408201527f7265737300000000000000000000000000000000000000000000000000000000606082015260800190565b60208082526019908201527f4552433732313a20617070726f766520746f2063616c6c657200000000000000604082015260600190565b6020808252602c908201527f4552433732313a206f70657261746f7220717565727920666f72206e6f6e657860408201526b34b9ba32b73a103a37b5b2b760a11b606082015260800190565b60208082526021908201527f4d65726b6c654469737472696275746f723a20496e76616c69642070726f6f6660408201527f2e00000000000000000000000000000000000000000000000000000000000000606082015260800190565b60208082526038908201527f4552433732313a20617070726f76652063616c6c6572206973206e6f74206f7760408201527f6e6572206e6f7220617070726f76656420666f7220616c6c0000000000000000606082015260800190565b6020808252602a908201527f4552433732313a2062616c616e636520717565727920666f7220746865207a6560408201527f726f206164647265737300000000000000000000000000000000000000000000606082015260800190565b60208082526029908201527f4552433732313a206f776e657220717565727920666f72206e6f6e657869737460408201527f656e7420746f6b656e0000000000000000000000000000000000000000000000606082015260800190565b6020808252818101527f4552433732313a206d696e7420746f20746865207a65726f2061646472657373604082015260600190565b6020808252602c908201527f4552433732313a20617070726f76656420717565727920666f72206e6f6e657860408201526b34b9ba32b73a103a37b5b2b760a11b606082015260800190565b6020808252818101527f4f776e61626c653a2063616c6c6572206973206e6f7420746865206f776e6572604082015260600190565b60208082526029908201527f4552433732313a207472616e73666572206f6620746f6b656e2074686174206960408201527f73206e6f74206f776e0000000000000000000000000000000000000000000000606082015260800190565b60208082526021908201527f4552433732313a20617070726f76616c20746f2063757272656e74206f776e6560408201527f7200000000000000000000000000000000000000000000000000000000000000606082015260800190565b60208082526031908201527f4552433732313a207472616e736665722063616c6c6572206973206e6f74206f60408201527f776e6572206e6f7220617070726f766564000000000000000000000000000000606082015260800190565b60008582526001600160a01b038516602083015283604083015260806060830152611ef36080830184611a13565b600082198211156124d4576124d46125b9565b500190565b6000826124e8576124e86125cf565b500490565b6000816000190483118215151615612507576125076125b9565b500290565b60008282101561251e5761251e6125b9565b500390565b60005b8381101561253e578181015183820152602001612526565b838111156106c95750506000910152565b60028104600182168061256357607f821691505b6020821081141561258457634e487b7160e01b600052602260045260246000fd5b50919050565b600060001982141561259e5761259e6125b9565b5060010190565b6000826125b4576125b46125cf565b500690565b634e487b7160e01b600052601160045260246000fd5b634e487b7160e01b600052601260045260246000fd5b634e487b7160e01b600052604160045260246000fd5b6001600160e01b0319811681146109d357600080fdfe4142434445464748494a4b4c4d4e4f505152535455565758595a6162636465666768696a6b6c6d6e6f707172737475767778797a303132333435363738392b2fa26469706673582212204dace5b2ce8d27ae4305ef9adb7e2014a612f08beae3de592932dc005a8005bb64736f6c6343000800003361723a2f2f4e4a4b74737749707938746e41526270505567616930524e6568676a6b4666566f5679497369532d56775561723a2f2f373165477836415f52764d636c646e4642306e7155325541334e67766963624a6f3232444f4a4a6c4c597361723a2f2f45714d387649554b462d7347697a2d5368496e586a7a636d73546f4b50507162794c6467674d6941694a6361723a2f2f443377775a636b794f51314e4c564d7a4a334372586c7777346669533471586e384851477550303971676761723a2f2f6754686953544264386e334e77734c5a6f3664676245574847796d4531652d37574e685f4f364973494e5961723a2f2f3467324d7145692d38622d4c6832465f5f6a744d35356478534b555a706335494a4732566c464a6437563461723a2f2f7851744b3445736f705556646c6557633847772d38615047482d7a4a397370757976457568784e74594e3861723a2f2f5f325065574653564b6877725a557652376833384a6b586d766c634239454d3678314439617166466a683861723a2f2f5f64495039675a726e496a6551557173463777386470705530716258645179457649696d7867347370735961723a2f2f4a4c686a50756f6d37777a64646f352d7167446c6b4c585a497568754a54454a69793835655f6b464b7a3861723a2f2f4d4c66616a6743626b796e6e325143747454597078726b434430703456653270306856595056716665436761723a2f2f62575f42317169642d626c4b475342527671544646495a6b56316c326f626e513544513853616e4161635161723a2f2f312d5f73662d3258786930306847787631356b374562564368446b4570366839626d467551436b4c736d7361723a2f2f7a685659647953567a666a79516b4c783059576358754c77784c6b4c4a303951334f46567572553031655961723a2f2f5570544a6e6d4a70567444326f41716357326d4d3255483857747a4c634c4e51487736535779303237686761723a2f2f5f4b597a6f704e596a53596373414655456f766a555966443864776e716c7755636f7873574470514b376761723a2f2f45756247314759306e5944336d7041577836396d585f33306d33655a4b4346364f373763535f6265714d5561723a2f2f52565a4f66565067656771596e7643707349344244613639585245695a6d536c73536d37485f366755306f61723a2f2f4d557336344f304b37326a7073713667715368754b79677a6c4c714f795a695a626d4449554a304d37686761723a2f2f543852416c42396d4f5932435968384c786f5650364e42504b6c7a6c2d47436b5a6266707362376c6b437361723a2f2f3050666558496d62496d4e465776304a366e594d726e414b5a6a755141765a6e3748715a6532544e6f5a3861723a2f2f723047764968304f723233516d6a6f336c4e4b39767a646d333431344374377747714339753074716a686b61723a2f2f72646533363769527944464a676e392d3433556675414b4c624e762d4575664637564b6643622d7550556f61723a2f2f676450356b6a565f6663386a433355423764756e69745f7679493050305a4c575357456c734973306f393861723a2f2f707377686656546d4d68395342395658756e5a394e72497442335a717a3449437a2d696f3263476566624961723a2f2f47524b7945335a7667586a696c726451355f5f314e4c365254697157352d6b547752356b7974346a66363861723a2f2f38716e4f5346714d4e6d5f4973693962396746345f415f754b75784f525f333572304e7353344c73704a7761723a2f2f673448336b716a416673686a42456f496b58364b7332566952744c3838617179666167355369304a44344961723a2f2f377670424f4533474a346b4a70363357386b57546e6647766b47477871463071564f6c54594b6d5f62457761723a2f2f506353596a77765751782d4a6f4d5545495069646e7750656374516a4b6732356c725458493478554c725161723a2f2f7975453546646a41484e494e716e5031345a57466c4b644a336b5651726d584647436a5f6b75306e422d3461723a2f2f6c727a724e747549476134693238684a59383175575369662d52745f5567344c4a335a4c43716e3847393061723a2f2f5a564d714a455468543276735f63594c37434d6434696a4c76557143394b6f7a324436736449315776476361723a2f2f374f324f754c48455363357a6a775654437242657537556e3954575541564e63594e65616f3374714a6d6761723a2f2f43307a66586e5875336a4959653667624a7a72344d434e614c69396e647147635f445a4f4b4c4a6562704561723a2f2f454d4c727352357676423669386d67673731415f5241482d6b4241343462652d6a54654e464961556d7063",
  "devdoc": {
    "kind": "dev",
    "methods": {
      "approve(address,uint256)": {
        "details": "See {IERC721-approve}."
      },
      "balanceOf(address)": {
        "details": "See {IERC721-balanceOf}."
      },
      "getApproved(uint256)": {
        "details": "See {IERC721-getApproved}."
      },
      "isApprovedForAll(address,address)": {
        "details": "See {IERC721-isApprovedForAll}."
      },
      "name()": {
        "details": "See {IERC721Metadata-name}."
      },
      "owner()": {
        "details": "Returns the address of the current owner."
      },
      "ownerOf(uint256)": {
        "details": "See {IERC721-ownerOf}."
      },
      "renounceOwnership()": {
        "details": "Leaves the contract without owner. It will not be possible to call `onlyOwner` functions anymore. Can only be called by the current owner. NOTE: Renouncing ownership will leave the contract without an owner, thereby removing any functionality that is only available to the owner."
      },
      "safeTransferFrom(address,address,uint256)": {
        "details": "See {IERC721-safeTransferFrom}."
      },
      "safeTransferFrom(address,address,uint256,bytes)": {
        "details": "See {IERC721-safeTransferFrom}."
      },
      "setApprovalForAll(address,bool)": {
        "details": "See {IERC721-setApprovalForAll}."
      },
      "supportsInterface(bytes4)": {
        "details": "See {IERC165-supportsInterface}."
      },
      "symbol()": {
        "details": "See {IERC721Metadata-symbol}."
      },
      "tokenURI(uint256)": {
        "details": "See {IERC721Metadata-tokenURI}."
      },
      "transferFrom(address,address,uint256)": {
        "details": "See {IERC721-transferFrom}."
      },
      "transferOwnership(address)": {
        "details": "Transfers ownership of the contract to a new account (`newOwner`). Can only be called by the current owner."
      }
    },
    "version": 1
  },
  "userdoc": {
    "kind": "user",
    "methods": {},
    "version": 1
  },
  "storageLayout": {
    "storage": [
      {
        "astId": 130,
        "contract": "contracts/MerkleDistributor.sol:MerkleDistributor",
        "label": "_name",
        "offset": 0,
        "slot": "0",
        "type": "t_string_storage"
      },
      {
        "astId": 132,
        "contract": "contracts/MerkleDistributor.sol:MerkleDistributor",
        "label": "_symbol",
        "offset": 0,
        "slot": "1",
        "type": "t_string_storage"
      },
      {
        "astId": 136,
        "contract": "contracts/MerkleDistributor.sol:MerkleDistributor",
        "label": "_owners",
        "offset": 0,
        "slot": "2",
        "type": "t_mapping(t_uint256,t_address)"
      },
      {
        "astId": 140,
        "contract": "contracts/MerkleDistributor.sol:MerkleDistributor",
        "label": "_balances",
        "offset": 0,
        "slot": "3",
        "type": "t_mapping(t_address,t_uint256)"
      },
      {
        "astId": 144,
        "contract": "contracts/MerkleDistributor.sol:MerkleDistributor",
        "label": "_tokenApprovals",
        "offset": 0,
        "slot": "4",
        "type": "t_mapping(t_uint256,t_address)"
      },
      {
        "astId": 150,
        "contract": "contracts/MerkleDistributor.sol:MerkleDistributor",
        "label": "_operatorApprovals",
        "offset": 0,
        "slot": "5",
        "type": "t_mapping(t_address,t_mapping(t_address,t_bool))"
      },
      {
        "astId": 7,
        "contract": "contracts/MerkleDistributor.sol:MerkleDistributor",
        "label": "_owner",
        "offset": 0,
        "slot": "6",
        "type": "t_address"
      },
      {
        "astId": 1822,
        "contract": "contracts/MerkleDistributor.sol:MerkleDistributor",
        "label": "count",
        "offset": 0,
        "slot": "7",
        "type": "t_uint256"
      },
      {
        "astId": 1829,
        "contract": "contracts/MerkleDistributor.sol:MerkleDistributor",
        "label": "claimedBitMap",
        "offset": 0,
        "slot": "8",
        "type": "t_mapping(t_uint256,t_uint256)"
      },
      {
        "astId": 1833,
        "contract": "contracts/MerkleDistributor.sol:MerkleDistributor",
        "label": "urlMap",
        "offset": 0,
        "slot": "9",
        "type": "t_mapping(t_string_memory_ptr,t_string_storage)"
      },
      {
        "astId": 1838,
        "contract": "contracts/MerkleDistributor.sol:MerkleDistributor",
        "label": "tokenSummary",
        "offset": 0,
        "slot": "10",
        "type": "t_mapping(t_uint256,t_struct(Summary)1819_storage)"
      }
    ],
    "types": {
      "t_address": {
        "encoding": "inplace",
        "label": "address",
        "numberOfBytes": "20"
      },
      "t_bool": {
        "encoding": "inplace",
        "label": "bool",
        "numberOfBytes": "1"
      },
      "t_mapping(t_address,t_bool)": {
        "encoding": "mapping",
        "key": "t_address",
        "label": "mapping(address => bool)",
        "numberOfBytes": "32",
        "value": "t_bool"
      },
      "t_mapping(t_address,t_mapping(t_address,t_bool))": {
        "encoding": "mapping",
        "key": "t_address",
        "label": "mapping(address => mapping(address => bool))",
        "numberOfBytes": "32",
        "value": "t_mapping(t_address,t_bool)"
      },
      "t_mapping(t_address,t_uint256)": {
        "encoding": "mapping",
        "key": "t_address",
        "label": "mapping(address => uint256)",
        "numberOfBytes": "32",
        "value": "t_uint256"
      },
      "t_mapping(t_string_memory_ptr,t_string_storage)": {
        "encoding": "mapping",
        "key": "t_string_memory_ptr",
        "label": "mapping(string => string)",
        "numberOfBytes": "32",
        "value": "t_string_storage"
      },
      "t_mapping(t_uint256,t_address)": {
        "encoding": "mapping",
        "key": "t_uint256",
        "label": "mapping(uint256 => address)",
        "numberOfBytes": "32",
        "value": "t_address"
      },
      "t_mapping(t_uint256,t_struct(Summary)1819_storage)": {
        "encoding": "mapping",
        "key": "t_uint256",
        "label": "mapping(uint256 => struct MerkleDistributor.Summary)",
        "numberOfBytes": "32",
        "value": "t_struct(Summary)1819_storage"
      },
      "t_mapping(t_uint256,t_uint256)": {
        "encoding": "mapping",
        "key": "t_uint256",
        "label": "mapping(uint256 => uint256)",
        "numberOfBytes": "32",
        "value": "t_uint256"
      },
      "t_string_memory_ptr": {
        "encoding": "bytes",
        "label": "string",
        "numberOfBytes": "32"
      },
      "t_string_storage": {
        "encoding": "bytes",
        "label": "string",
        "numberOfBytes": "32"
      },
      "t_struct(Summary)1819_storage": {
        "encoding": "inplace",
        "label": "struct MerkleDistributor.Summary",
        "members": [
          {
            "astId": 1814,
            "contract": "contracts/MerkleDistributor.sol:MerkleDistributor",
            "label": "score",
            "offset": 0,
            "slot": "0",
            "type": "t_uint256"
          },
          {
            "astId": 1816,
            "contract": "contracts/MerkleDistributor.sol:MerkleDistributor",
            "label": "creature",
            "offset": 0,
            "slot": "1",
            "type": "t_string_storage"
          },
          {
            "astId": 1818,
            "contract": "contracts/MerkleDistributor.sol:MerkleDistributor",
            "label": "index",
            "offset": 0,
            "slot": "2",
            "type": "t_uint256"
          }
        ],
        "numberOfBytes": "96"
      },
      "t_uint256": {
        "encoding": "inplace",
        "label": "uint256",
        "numberOfBytes": "32"
      }
    }
  }
}