{
  "address": "0xdCd8898fE0ac80F6e34FE7f0cccE0F2faa62C9d9",
  "abi": [
    {
      "inputs": [
        {
          "internalType": "bytes32",
          "name": "merkleRoot_",
          "type": "bytes32"
        }
      ],
      "stateMutability": "nonpayable",
      "type": "constructor"
    },
    {
      "anonymous": false,
      "inputs": [
        {
          "indexed": true,
          "internalType": "address",
          "name": "owner",
          "type": "address"
        },
        {
          "indexed": true,
          "internalType": "address",
          "name": "approved",
          "type": "address"
        },
        {
          "indexed": true,
          "internalType": "uint256",
          "name": "tokenId",
          "type": "uint256"
        }
      ],
      "name": "Approval",
      "type": "event"
    },
    {
      "anonymous": false,
      "inputs": [
        {
          "indexed": true,
          "internalType": "address",
          "name": "owner",
          "type": "address"
        },
        {
          "indexed": true,
          "internalType": "address",
          "name": "operator",
          "type": "address"
        },
        {
          "indexed": false,
          "internalType": "bool",
          "name": "approved",
          "type": "bool"
        }
      ],
      "name": "ApprovalForAll",
      "type": "event"
    },
    {
      "anonymous": false,
      "inputs": [
        {
          "indexed": false,
          "internalType": "uint256",
          "name": "index",
          "type": "uint256"
        },
        {
          "indexed": false,
          "internalType": "address",
          "name": "account",
          "type": "address"
        },
        {
          "indexed": false,
          "internalType": "uint256",
          "name": "score",
          "type": "uint256"
        },
        {
          "indexed": false,
          "internalType": "string",
          "name": "creature",
          "type": "string"
        }
      ],
      "name": "Claimed",
      "type": "event"
    },
    {
      "anonymous": false,
      "inputs": [
        {
          "indexed": true,
          "internalType": "address",
          "name": "previousOwner",
          "type": "address"
        },
        {
          "indexed": true,
          "internalType": "address",
          "name": "newOwner",
          "type": "address"
        }
      ],
      "name": "OwnershipTransferred",
      "type": "event"
    },
    {
      "anonymous": false,
      "inputs": [
        {
          "indexed": true,
          "internalType": "address",
          "name": "from",
          "type": "address"
        },
        {
          "indexed": true,
          "internalType": "address",
          "name": "to",
          "type": "address"
        },
        {
          "indexed": true,
          "internalType": "uint256",
          "name": "tokenId",
          "type": "uint256"
        }
      ],
      "name": "Transfer",
      "type": "event"
    },
    {
      "inputs": [
        {
          "internalType": "address",
          "name": "to",
          "type": "address"
        },
        {
          "internalType": "uint256",
          "name": "tokenId",
          "type": "uint256"
        }
      ],
      "name": "approve",
      "outputs": [],
      "stateMutability": "nonpayable",
      "type": "function"
    },
    {
      "inputs": [
        {
          "internalType": "address",
          "name": "owner",
          "type": "address"
        }
      ],
      "name": "balanceOf",
      "outputs": [
        {
          "internalType": "uint256",
          "name": "",
          "type": "uint256"
        }
      ],
      "stateMutability": "view",
      "type": "function"
    },
    {
      "inputs": [
        {
          "internalType": "uint256",
          "name": "index",
          "type": "uint256"
        },
        {
          "internalType": "address",
          "name": "account",
          "type": "address"
        },
        {
          "internalType": "uint256",
          "name": "score",
          "type": "uint256"
        },
        {
          "internalType": "string",
          "name": "creature",
          "type": "string"
        },
        {
          "internalType": "bytes32[]",
          "name": "merkleProof",
          "type": "bytes32[]"
        }
      ],
      "name": "claim",
      "outputs": [],
      "stateMutability": "nonpayable",
      "type": "function"
    },
    {
      "inputs": [],
      "name": "count",
      "outputs": [
        {
          "internalType": "uint256",
          "name": "",
          "type": "uint256"
        }
      ],
      "stateMutability": "view",
      "type": "function"
    },
    {
      "inputs": [
        {
          "internalType": "uint256",
          "name": "tokenId",
          "type": "uint256"
        }
      ],
      "name": "getApproved",
      "outputs": [
        {
          "internalType": "address",
          "name": "",
          "type": "address"
        }
      ],
      "stateMutability": "view",
      "type": "function"
    },
    {
      "inputs": [
        {
          "internalType": "address",
          "name": "owner",
          "type": "address"
        },
        {
          "internalType": "address",
          "name": "operator",
          "type": "address"
        }
      ],
      "name": "isApprovedForAll",
      "outputs": [
        {
          "internalType": "bool",
          "name": "",
          "type": "bool"
        }
      ],
      "stateMutability": "view",
      "type": "function"
    },
    {
      "inputs": [
        {
          "internalType": "uint256",
          "name": "index",
          "type": "uint256"
        }
      ],
      "name": "isClaimed",
      "outputs": [
        {
          "internalType": "bool",
          "name": "",
          "type": "bool"
        }
      ],
      "stateMutability": "view",
      "type": "function"
    },
    {
      "inputs": [],
      "name": "merkleRoot",
      "outputs": [
        {
          "internalType": "bytes32",
          "name": "",
          "type": "bytes32"
        }
      ],
      "stateMutability": "view",
      "type": "function"
    },
    {
      "inputs": [],
      "name": "name",
      "outputs": [
        {
          "internalType": "string",
          "name": "",
          "type": "string"
        }
      ],
      "stateMutability": "view",
      "type": "function"
    },
    {
      "inputs": [],
      "name": "owner",
      "outputs": [
        {
          "internalType": "address",
          "name": "",
          "type": "address"
        }
      ],
      "stateMutability": "view",
      "type": "function"
    },
    {
      "inputs": [
        {
          "internalType": "uint256",
          "name": "tokenId",
          "type": "uint256"
        }
      ],
      "name": "ownerOf",
      "outputs": [
        {
          "internalType": "address",
          "name": "",
          "type": "address"
        }
      ],
      "stateMutability": "view",
      "type": "function"
    },
    {
      "inputs": [],
      "name": "renounceOwnership",
      "outputs": [],
      "stateMutability": "nonpayable",
      "type": "function"
    },
    {
      "inputs": [
        {
          "internalType": "address",
          "name": "from",
          "type": "address"
        },
        {
          "internalType": "address",
          "name": "to",
          "type": "address"
        },
        {
          "internalType": "uint256",
          "name": "tokenId",
          "type": "uint256"
        }
      ],
      "name": "safeTransferFrom",
      "outputs": [],
      "stateMutability": "nonpayable",
      "type": "function"
    },
    {
      "inputs": [
        {
          "internalType": "address",
          "name": "from",
          "type": "address"
        },
        {
          "internalType": "address",
          "name": "to",
          "type": "address"
        },
        {
          "internalType": "uint256",
          "name": "tokenId",
          "type": "uint256"
        },
        {
          "internalType": "bytes",
          "name": "_data",
          "type": "bytes"
        }
      ],
      "name": "safeTransferFrom",
      "outputs": [],
      "stateMutability": "nonpayable",
      "type": "function"
    },
    {
      "inputs": [
        {
          "internalType": "address",
          "name": "operator",
          "type": "address"
        },
        {
          "internalType": "bool",
          "name": "approved",
          "type": "bool"
        }
      ],
      "name": "setApprovalForAll",
      "outputs": [],
      "stateMutability": "nonpayable",
      "type": "function"
    },
    {
      "inputs": [
        {
          "internalType": "bytes4",
          "name": "interfaceId",
          "type": "bytes4"
        }
      ],
      "name": "supportsInterface",
      "outputs": [
        {
          "internalType": "bool",
          "name": "",
          "type": "bool"
        }
      ],
      "stateMutability": "view",
      "type": "function"
    },
    {
      "inputs": [],
      "name": "symbol",
      "outputs": [
        {
          "internalType": "string",
          "name": "",
          "type": "string"
        }
      ],
      "stateMutability": "view",
      "type": "function"
    },
    {
      "inputs": [
        {
          "internalType": "uint256",
          "name": "",
          "type": "uint256"
        }
      ],
      "name": "tokenSummary",
      "outputs": [
        {
          "internalType": "uint256",
          "name": "score",
          "type": "uint256"
        },
        {
          "internalType": "string",
          "name": "creature",
          "type": "string"
        },
        {
          "internalType": "uint256",
          "name": "index",
          "type": "uint256"
        }
      ],
      "stateMutability": "view",
      "type": "function"
    },
    {
      "inputs": [
        {
          "internalType": "uint256",
          "name": "tokenId",
          "type": "uint256"
        }
      ],
      "name": "tokenURI",
      "outputs": [
        {
          "internalType": "string",
          "name": "",
          "type": "string"
        }
      ],
      "stateMutability": "view",
      "type": "function"
    },
    {
      "inputs": [
        {
          "internalType": "address",
          "name": "from",
          "type": "address"
        },
        {
          "internalType": "address",
          "name": "to",
          "type": "address"
        },
        {
          "internalType": "uint256",
          "name": "tokenId",
          "type": "uint256"
        }
      ],
      "name": "transferFrom",
      "outputs": [],
      "stateMutability": "nonpayable",
      "type": "function"
    },
    {
      "inputs": [
        {
          "internalType": "address",
          "name": "newOwner",
          "type": "address"
        }
      ],
      "name": "transferOwnership",
      "outputs": [],
      "stateMutability": "nonpayable",
      "type": "function"
    },
    {
      "inputs": [
        {
          "internalType": "string",
          "name": "",
          "type": "string"
        }
      ],
      "name": "urlMap",
      "outputs": [
        {
          "internalType": "string",
          "name": "",
          "type": "string"
        }
      ],
      "stateMutability": "view",
      "type": "function"
    }
  ],
  "transactionHash": "0x33125d3a3a480491eba2e20a31b3e4f4f49a83147ca69a61f27da605add5f10a",
  "args": [
    "0x96aaea16a6b418f92ac445af7c98da897e035ea230510a187567e19895ad9157"
  ],
  "numDeployments": 1,
  "solcInputHash": "5028b1adb430a5cb08a8a8884ba4b606",
  "bytecode": "0x60a060405260006007553480156200001657600080fd5b506040516200402a3803806200402a833981016040819052620000399162000cce565b604080518082018252601a81527f4d657461637261667420536561736f6e2050617373203230323200000000000060208083019182528351808501909452600684526526a19918191960d11b9084015281519192916200009c9160009162000c28565b508051620000b290600190602084019062000c28565b505050620000cf620000c962000bd260201b60201c565b62000bd6565b60808190526040805160608101909152603080825262003eaa60208301396009604051620000fd9062000fc8565b908152602001604051809103902090805190602001906200012092919062000c28565b5060405180606001604052806030815260200162003d8a6030913960096040516200014b9062000ebc565b908152602001604051809103902090805190602001906200016e92919062000c28565b5060405180606001604052806030815260200162003dba603091396009604051620001999062000d43565b90815260200160405180910390209080519060200190620001bc92919062000c28565b5060405180606001604052806030815260200162003aba603091396009604051620001e79062000ce7565b908152602001604051809103902090805190602001906200020a92919062000c28565b5060405180606001604052806030815260200162003cfa603091396009604051620002359062000ff6565b908152602001604051809103902090805190602001906200025892919062000c28565b5060405180606001604052806030815260200162003bda603091396009604051620002839062000f68565b90815260200160405180910390209080519060200190620002a692919062000c28565b5060405180606001604052806030815260200162003dea603091396009604051620002d19062000f21565b90815260200160405180910390209080519060200190620002f492919062000c28565b5060405180606001604052806030815260200162003e4a6030913960096040516200031f9062000d5a565b908152602001604051809103902090805190602001906200034292919062000c28565b50604051806060016040528060308152602001620039ca6030913960096040516200036d906200100b565b908152602001604051809103902090805190602001906200039092919062000c28565b5060405180606001604052806030815260200162003a2a603091396009604051620003bb9062000e2f565b90815260200160405180910390209080519060200190620003de92919062000c28565b5060405180606001604052806030815260200162003d5a603091396009604051620004099062000e46565b908152602001604051809103902090805190602001906200042c92919062000c28565b5060405180606001604052806030815260200162003f0a603091396009604051620004579062000d82565b908152602001604051809103902090805190602001906200047a92919062000c28565b5060405180606001604052806030815260200162003a8a603091396009604051620004a59062000cfa565b90815260200160405180910390209080519060200190620004c892919062000c28565b5060405180606001604052806030815260200162003b1a603091396009604051620004f39062000f34565b908152602001604051809103902090805190602001906200051692919062000c28565b50604051806060016040528060308152602001620039fa603091396009604051620005419062000e8d565b908152602001604051809103902090805190602001906200056492919062000c28565b5060405180606001604052806030815260200162003fca6030913960096040516200058f9062000d11565b90815260200160405180910390209080519060200190620005b292919062000c28565b5060405180606001604052806030815260200162003b7a603091396009604051620005dd9062000de0565b908152602001604051809103902090805190602001906200060092919062000c28565b5060405180606001604052806030815260200162003f3a6030913960096040516200062b9062000f93565b908152602001604051809103902090805190602001906200064e92919062000c28565b5060405180606001604052806030815260200162003c9a603091396009604051620006799062001020565b908152602001604051809103902090805190602001906200069c92919062000c28565b5060405180606001604052806030815260200162003c3a603091396009604051620006c79062000e15565b90815260200160405180910390209080519060200190620006ea92919062000c28565b506040518060600160405280603081526020016200399a603091396009604051620007159062000eec565b908152602001604051809103902090805190602001906200073892919062000c28565b5060405180606001604052806030815260200162003e1a603091396009604051620007639062000e74565b908152602001604051809103902090805190602001906200078692919062000c28565b5060405180606001604052806030815260200162003baa603091396009604051620007b19062000f4d565b90815260200160405180910390209080519060200190620007d492919062000c28565b5060405180606001604052806030815260200162003cca603091396009604051620007ff9062000f06565b908152602001604051809103902090805190602001906200082292919062000c28565b5060405180606001604052806030815260200162003a5a6030913960096040516200084d9062000f7d565b908152602001604051809103902090805190602001906200087092919062000c28565b5060405180606001604052806030815260200162003e7a6030913960096040516200089b9062000fb0565b90815260200160405180910390209080519060200190620008be92919062000c28565b5060405180606001604052806030815260200162003d2a603091396009604051620008e99062000db3565b908152602001604051809103902090805190602001906200090c92919062000c28565b5060405180606001604052806030815260200162003ffa603091396009604051620009379062000ea6565b908152602001604051809103902090805190602001906200095a92919062000c28565b5060405180606001604052806030815260200162003eda603091396009604051620009859062000dfd565b90815260200160405180910390209080519060200190620009a892919062000c28565b5060405180606001604052806030815260200162003aea603091396009604051620009d39062000d9b565b90815260200160405180910390209080519060200190620009f692919062000c28565b5060405180606001604052806030815260200162003f6a60309139600960405162000a219062000d2c565b9081526020016040518091039020908051906020019062000a4492919062000c28565b5060405180606001604052806030815260200162003c6a60309139600960405162000a6f9062000fdd565b9081526020016040518091039020908051906020019062000a9292919062000c28565b5060405180606001604052806030815260200162003c0a60309139600960405162000abd9062000ed3565b9081526020016040518091039020908051906020019062000ae092919062000c28565b5060405180606001604052806030815260200162003f9a60309139600960405162000b0b9062000d6f565b9081526020016040518091039020908051906020019062000b2e92919062000c28565b5060405180606001604052806030815260200162003b4a60309139600960405162000b599062000e5f565b9081526020016040518091039020908051906020019062000b7c92919062000c28565b506040518060600160405280603081526020016200396a60309139600960405162000ba79062000dcb565b9081526020016040518091039020908051906020019062000bca92919062000c28565b505062001075565b3390565b600680546001600160a01b038381166001600160a01b0319831681179093556040519116919082907f8be0079c531659141344cd1fd0a4f28419497f9722a3daafe3b4186f6b6457e090600090a35050565b82805462000c369062001038565b90600052602060002090601f01602090048101928262000c5a576000855562000ca5565b82601f1062000c7557805160ff191683800117855562000ca5565b8280016001018555821562000ca5579182015b8281111562000ca557825182559160200191906001019062000c88565b5062000cb392915062000cb7565b5090565b5b8082111562000cb3576000815560010162000cb8565b60006020828403121562000ce0578081fd5b5051919050565b6610995951dbdb1960ca1b815260070190565b6a111bdb1c1a1a5b91dbdb1960aa1b8152600b0190565b6e115b99195c911c9859dbdb91dbdb19608a1b8152600f0190565b6a105e1bdb1bdd1b11dbdb1960aa1b8152600b0190565b6a536c696d6542726f6e7a6560a81b8152600b0190565b6821b7bba9b4b63b32b960b91b815260090190565b66141a59d1dbdb1960ca1b815260070190565b6c4372656570657242726f6e7a6560981b8152600d0190565b6b57697468657242726f6e7a6560a01b8152600c0190565b6b547572746c6542726f6e7a6560a01b8152600c0190565b6850696742726f6e7a6560b81b815260090190565b7022b73232b9223930b3b7b729b4b63b32b960791b815260110190565b6b2bb4ba3432b929b4b63b32b960a11b8152600c0190565b6d22b73232b936b0b729b4b63b32b960911b8152600e0190565b6a10dc99595c195c91dbdb1960aa1b8152600b0190565b6c21b932b2b832b929b4b63b32b960991b8152600d0190565b682834b3a9b4b63b32b960b91b815260090190565b6c125c9bdb91dbdb195b51dbdb19609a1b8152600d0190565b6c446f6c7068696e42726f6e7a6560981b8152600d0190565b6915da5d1a195c91dbdb1960b21b8152600a0190565b6a29b634b6b2a9b4b63b32b960a91b8152600b0190565b6c41786f6c6f746c42726f6e7a6560981b8152600d0190565b6d456e6465726d616e42726f6e7a6560901b8152600e0190565b6e49726f6e476f6c656d42726f6e7a6560881b8152600f0190565b6610dbddd1dbdb1960ca1b815260070190565b6c2237b6383434b729b4b63b32b960991b8152600d0190565b6e24b937b723b7b632b6a9b4b63b32b960891b8152600f0190565b6842656542726f6e7a6560b81b815260090190565b69151d5c9d1b1951dbdb1960b21b8152600a0190565b70456e646572447261676f6e42726f6e7a6560781b815260110190565b6b2a3ab93a3632a9b4b63b32b960a11b8152600c0190565b6814db1a5b5951dbdb1960ba1b815260090190565b6c20bc37b637ba3629b4b63b32b960991b8152600d0190565b682132b2a9b4b63b32b960b91b815260090190565b68436f7742726f6e7a6560b81b815260090190565b6b115b99195c9b585b91dbdb1960a21b8152600c0190565b6002810460018216806200104d57607f821691505b602082108114156200106f57634e487b7160e01b600052602260045260246000fd5b50919050565b6080516128d262001098600039600081816105650152610c2001526128d26000f3fe608060405234801561001057600080fd5b50600436106101825760003560e01c8063715018a6116100d8578063aa27780f1161008c578063e985e9c511610066578063e985e9c5146102fc578063f2fde38b1461030f578063f6bf2a591461032257610182565b8063aa27780f146102b4578063b88d4fde146102d6578063c87b56dd146102e957610182565b806395d89b41116100bd57806395d89b41146102865780639e34070f1461028e578063a22cb465146102a157610182565b8063715018a6146102765780638da5cb5b1461027e57610182565b806323b872dd1161013a57806359a817ef1161011457806359a817ef1461023d5780636352211e1461025057806370a082311461026357610182565b806323b872dd1461020f5780632eb4a7ab1461022257806342842e0e1461022a57610182565b806306fdde031161016b57806306fdde03146101c5578063081812fc146101da578063095ea7b3146101fa57610182565b806301ffc9a71461018757806306661abd146101b0575b600080fd5b61019a610195366004611ad2565b610335565b6040516101a79190612134565b60405180910390f35b6101b86103af565b6040516101a7919061213f565b6101cd6103b5565b6040516101a79190612148565b6101ed6101e8366004611b3d565b610447565b6040516101a791906120ee565b61020d610208366004611aa9565b610493565b005b61020d61021d3660046119bb565b61052b565b6101b8610563565b61020d6102383660046119bb565b610587565b6101cd61024b366004611b0a565b6105a2565b6101ed61025e366004611b3d565b610647565b6101b861027136600461196f565b61067c565b61020d6106c0565b6101ed61070b565b6101cd61071a565b61019a61029c366004611b3d565b610729565b61020d6102af366004611a6f565b61076a565b6102c76102c2366004611b3d565b610780565b6040516101a7939291906126e3565b61020d6102e43660046119f6565b61082b565b6101cd6102f7366004611b3d565b61086a565b61019a61030a366004611989565b610ad2565b61020d61031d36600461196f565b610b00565b61020d610330366004611b55565b610b71565b60006001600160e01b031982167f80ac58cd00000000000000000000000000000000000000000000000000000000148061039857506001600160e01b031982167f5b5e139f00000000000000000000000000000000000000000000000000000000145b806103a757506103a782610d2d565b90505b919050565b60075481565b6060600080546103c49061279a565b80601f01602080910402602001604051908101604052809291908181526020018280546103f09061279a565b801561043d5780601f106104125761010080835404028352916020019161043d565b820191906000526020600020905b81548152906001019060200180831161042057829003601f168201915b5050505050905090565b600061045282610d5f565b6104775760405162461bcd60e51b815260040161046e906124e6565b60405180910390fd5b506000908152600460205260409020546001600160a01b031690565b600061049e82610647565b9050806001600160a01b0316836001600160a01b031614156104d25760405162461bcd60e51b815260040161046e906125c4565b806001600160a01b03166104e4610d7c565b6001600160a01b0316148061050057506105008161030a610d7c565b61051c5760405162461bcd60e51b815260040161046e9061239a565b6105268383610d80565b505050565b61053c610536610d7c565b82610dfb565b6105585760405162461bcd60e51b815260040161046e90612621565b610526838383610e80565b7f000000000000000000000000000000000000000000000000000000000000000081565b6105268383836040518060200160405280600081525061082b565b8051602081830181018051600982529282019190930120915280546105c69061279a565b80601f01602080910402602001604051908101604052809291908181526020018280546105f29061279a565b801561063f5780601f106106145761010080835404028352916020019161063f565b820191906000526020600020905b81548152906001019060200180831161062257829003601f168201915b505050505081565b6000818152600260205260408120546001600160a01b0316806103a75760405162461bcd60e51b815260040161046e90612454565b60006001600160a01b0382166106a45760405162461bcd60e51b815260040161046e906123f7565b506001600160a01b031660009081526003602052604090205490565b6106c8610d7c565b6001600160a01b03166106d961070b565b6001600160a01b0316146106ff5760405162461bcd60e51b815260040161046e90612532565b6107096000610fba565b565b6006546001600160a01b031690565b6060600180546103c49061279a565b60008061073861010084612724565b90506000610748610100856127f0565b60009283526008602052604090922054600190921b9182169091149392505050565b61077c610775610d7c565b8383611019565b5050565b600a60205260009081526040902080546001820180549192916107a29061279a565b80601f01602080910402602001604051908101604052809291908181526020018280546107ce9061279a565b801561081b5780601f106107f05761010080835404028352916020019161081b565b820191906000526020600020905b8154815290600101906020018083116107fe57829003601f168201915b5050505050908060020154905083565b61083c610836610d7c565b83610dfb565b6108585760405162461bcd60e51b815260040161046e90612621565b610864848484846110bc565b50505050565b60606000600a6000848152602001908152602001600020604051806060016040529081600082015481526020016001820180546108a69061279a565b80601f01602080910402602001604051908101604052809291908181526020018280546108d29061279a565b801561091f5780601f106108f45761010080835404028352916020019161091f565b820191906000526020600020905b81548152906001019060200180831161090257829003601f168201915b505050505081526020016002820154815250509050600061094382600001516110ef565b90506000826020015182610956876111b0565b60405160200161096893929190611cfe565b604051602081830303815290604052905060006009846020015184604051602001610994929190611ccf565b60408051601f19818403018152908290526109ae91611cb3565b908152602001604051809103902080546109c79061279a565b80601f01602080910402602001604051908101604052809291908181526020018280546109f39061279a565b8015610a405780601f10610a1557610100808354040283529160200191610a40565b820191906000526020600020905b815481529060010190602001808311610a2357829003601f168201915b505050505090506000610aa48383610a5b88600001516111b0565b6020808a0151604051610a7193928b9101611d95565b60408051601f1981840301815290829052610a90939291602001611ee1565b6040516020818303038152906040526112ff565b905080604051602001610ab79190612063565b60405160208183030381529060405295505050505050919050565b6001600160a01b03918216600090815260056020908152604080832093909416825291909152205460ff1690565b610b08610d7c565b6001600160a01b0316610b1961070b565b6001600160a01b031614610b3f5760405162461bcd60e51b815260040161046e90612532565b6001600160a01b038116610b655760405162461bcd60e51b815260040161046e906121b8565b610b6e81610fba565b50565b610b7a86610729565b15610b975760405162461bcd60e51b815260040161046e90612283565b61271060075410610bba5760405162461bcd60e51b815260040161046e9061224c565b600086868686604051602001610bd394939291906120a8565b604051602081830303815290604052805190602001209050610c4b8383808060200260200160405190810160405280939291908181526020018383602002808284376000920191909152507f000000000000000000000000000000000000000000000000000000000000000092508591506114aa9050565b610c675760405162461bcd60e51b815260040161046e9061267e565b600160076000828254610c7a919061270c565b90915550610c899050876114c0565b610c95866007546114fe565b6040805160608101825286815260208082018781528284018b90526007546000908152600a8352939093208251815592518051929392610cdb9260018501920190611829565b50604091820151600290910155517fee563d8e532abc293fca2fdeb41c25180305bddcf9206c167dab3e155aaf171390610d1c9089908990899089906126b5565b60405180910390a150505050505050565b6001600160e01b031981167f01ffc9a70000000000000000000000000000000000000000000000000000000014919050565b6000908152600260205260409020546001600160a01b0316151590565b3390565b6000818152600460205260409020805473ffffffffffffffffffffffffffffffffffffffff19166001600160a01b0384169081179091558190610dc282610647565b6001600160a01b03167f8c5be1e5ebec7d5bd14f71427d1e84f3dd0314c0f7b2291e5b200ac8c7c3b92560405160405180910390a45050565b6000610e0682610d5f565b610e225760405162461bcd60e51b815260040161046e9061234e565b6000610e2d83610647565b9050806001600160a01b0316846001600160a01b03161480610e685750836001600160a01b0316610e5d84610447565b6001600160a01b0316145b80610e785750610e788185610ad2565b949350505050565b826001600160a01b0316610e9382610647565b6001600160a01b031614610eb95760405162461bcd60e51b815260040161046e90612567565b6001600160a01b038216610edf5760405162461bcd60e51b815260040161046e906122ba565b610eea838383610526565b610ef5600082610d80565b6001600160a01b0383166000908152600360205260408120805460019290610f1e908490612757565b90915550506001600160a01b0382166000908152600360205260408120805460019290610f4c90849061270c565b9091555050600081815260026020526040808220805473ffffffffffffffffffffffffffffffffffffffff19166001600160a01b0386811691821790925591518493918716917fddf252ad1be2c89b69c2b068fc378daa952ba7f163c4a11628f55a4df523b3ef91a4505050565b600680546001600160a01b0383811673ffffffffffffffffffffffffffffffffffffffff19831681179093556040519116919082907f8be0079c531659141344cd1fd0a4f28419497f9722a3daafe3b4186f6b6457e090600090a35050565b816001600160a01b0316836001600160a01b0316141561104b5760405162461bcd60e51b815260040161046e90612317565b6001600160a01b0383811660008181526005602090815260408083209487168084529490915290819020805460ff1916851515179055517f17307eab39ab6107e8899845ad3d59bd9653f200f220920489ca2b5937696c31906110af908590612134565b60405180910390a3505050565b6110c7848484610e80565b6110d384848484611518565b6108645760405162461bcd60e51b815260040161046e9061215b565b60606107d08210611134575060408051808201909152600481527f476f6c640000000000000000000000000000000000000000000000000000000060208201526103aa565b6103e88210611177575060408051808201909152600681527f53696c766572000000000000000000000000000000000000000000000000000060208201526103aa565b505060408051808201909152600681527f42726f6e7a650000000000000000000000000000000000000000000000000000602082015290565b6060816111f1575060408051808201909152600181527f300000000000000000000000000000000000000000000000000000000000000060208201526103aa565b8160005b811561121b5780611205816127d5565b91506112149050600a83612724565b91506111f5565b60008167ffffffffffffffff81111561124457634e487b7160e01b600052604160045260246000fd5b6040519080825280601f01601f19166020018201604052801561126e576020820181803683370190505b5090505b8415610e7857611283600183612757565b9150611290600a866127f0565b61129b90603061270c565b60f81b8183815181106112be57634e487b7160e01b600052603260045260246000fd5b60200101907effffffffffffffffffffffffffffffffffffffffffffffffffffffffffffff1916908160001a9053506112f8600a86612724565b9450611272565b80516060908061131f5750506040805160208101909152600081526103aa565b6000600361132e83600261270c565b6113389190612724565b611343906004612738565b9050600061135282602061270c565b67ffffffffffffffff81111561137857634e487b7160e01b600052604160045260246000fd5b6040519080825280601f01601f1916602001820160405280156113a2576020820181803683370190505b509050600060405180606001604052806040815260200161285d604091399050600181016020830160005b8681101561142e576003818a01810151603f601282901c8116860151600c83901c8216870151600684901c831688015192909316870151600891821b60ff94851601821b92841692909201901b91160160e01b8352600490920191016113cd565b50600386066001811461144857600281146114745761149c565b7f3d3d00000000000000000000000000000000000000000000000000000000000060011983015261149c565b7f3d000000000000000000000000000000000000000000000000000000000000006000198301525b505050918152949350505050565b6000826114b7858461164c565b14949350505050565b60006114ce61010083612724565b905060006114de610100846127f0565b6000928352600860205260409092208054600190931b9092179091555050565b61077c828260405180602001604052806000815250611704565b600061152c846001600160a01b0316611737565b1561164157836001600160a01b031663150b7a02611548610d7c565b8786866040518563ffffffff1660e01b815260040161156a9493929190612102565b602060405180830381600087803b15801561158457600080fd5b505af19250505080156115b4575060408051601f3d908101601f191682019092526115b191810190611aee565b60015b61160e573d8080156115e2576040519150601f19603f3d011682016040523d82523d6000602084013e6115e7565b606091505b5080516116065760405162461bcd60e51b815260040161046e9061215b565b805181602001fd5b6001600160e01b0319167f150b7a0200000000000000000000000000000000000000000000000000000000149050610e78565b506001949350505050565b600081815b84518110156116fc57600085828151811061167c57634e487b7160e01b600052603260045260246000fd5b602002602001015190508083116116bd5782816040516020016116a0929190611ca5565b6040516020818303038152906040528051906020012092506116e9565b80836040516020016116d0929190611ca5565b6040516020818303038152906040528051906020012092505b50806116f4816127d5565b915050611651565b509392505050565b61170e838361173d565b61171b6000848484611518565b6105265760405162461bcd60e51b815260040161046e9061215b565b3b151590565b6001600160a01b0382166117635760405162461bcd60e51b815260040161046e906124b1565b61176c81610d5f565b156117895760405162461bcd60e51b815260040161046e90612215565b61179560008383610526565b6001600160a01b03821660009081526003602052604081208054600192906117be90849061270c565b9091555050600081815260026020526040808220805473ffffffffffffffffffffffffffffffffffffffff19166001600160a01b03861690811790915590518392907fddf252ad1be2c89b69c2b068fc378daa952ba7f163c4a11628f55a4df523b3ef908290a45050565b8280546118359061279a565b90600052602060002090601f016020900481019282611857576000855561189d565b82601f1061187057805160ff191683800117855561189d565b8280016001018555821561189d579182015b8281111561189d578251825591602001919060010190611882565b506118a99291506118ad565b5090565b5b808211156118a957600081556001016118ae565b600067ffffffffffffffff808411156118dd576118dd612830565b604051601f8501601f19168101602001828111828210171561190157611901612830565b60405284815291508183850186101561191957600080fd5b8484602083013760006020868301015250509392505050565b80356001600160a01b03811681146103aa57600080fd5b600082601f830112611959578081fd5b611968838335602085016118c2565b9392505050565b600060208284031215611980578081fd5b61196882611932565b6000806040838503121561199b578081fd5b6119a483611932565b91506119b260208401611932565b90509250929050565b6000806000606084860312156119cf578081fd5b6119d884611932565b92506119e660208501611932565b9150604084013590509250925092565b60008060008060808587031215611a0b578081fd5b611a1485611932565b9350611a2260208601611932565b925060408501359150606085013567ffffffffffffffff811115611a44578182fd5b8501601f81018713611a54578182fd5b611a63878235602084016118c2565b91505092959194509250565b60008060408385031215611a81578182fd5b611a8a83611932565b915060208301358015158114611a9e578182fd5b809150509250929050565b60008060408385031215611abb578182fd5b611ac483611932565b946020939093013593505050565b600060208284031215611ae3578081fd5b813561196881612846565b600060208284031215611aff578081fd5b815161196881612846565b600060208284031215611b1b578081fd5b813567ffffffffffffffff811115611b31578182fd5b610e7884828501611949565b600060208284031215611b4e578081fd5b5035919050565b60008060008060008060a08789031215611b6d578182fd5b86359550611b7d60208801611932565b945060408701359350606087013567ffffffffffffffff80821115611ba0578384fd5b611bac8a838b01611949565b94506080890135915080821115611bc1578384fd5b818901915089601f830112611bd4578384fd5b813581811115611be2578485fd5b8a60208083028501011115611bf5578485fd5b6020830194508093505050509295509295509295565b60008151808452611c2381602086016020860161276e565b601f01601f19169290920160200192915050565b60008151611c4981856020860161276e565b9290920192915050565b7f227d000000000000000000000000000000000000000000000000000000000000815260020190565b7f5d7d000000000000000000000000000000000000000000000000000000000000815260020190565b918252602082015260400190565b60008251611cc581846020870161276e565b9190910192915050565b60008351611ce181846020880161276e565b835190830190611cf581836020880161276e565b01949350505050565b60008451611d1081846020890161276e565b7f20000000000000000000000000000000000000000000000000000000000000009083019081528451611d4a81600184016020890161276e565b7f2023000000000000000000000000000000000000000000000000000000000000600192909101918201528351611d8881600384016020880161276e565b0160030195945050505050565b60007f7b2274726169745f74797065223a202273636f7265222c202276616c7565223a82527f202200000000000000000000000000000000000000000000000000000000000060208301528451611df381602285016020890161276e565b80830190507f227d2c00000000000000000000000000000000000000000000000000000000008060228301527f7b2274726169745f74797065223a20226372656174757265222c202276616c7560258301527f65223a20220000000000000000000000000000000000000000000000000000008060458401528651611e7f81604a860160208b0161276e565b604a9301928301919091527f7b2274726169745f74797065223a20226d6174657269616c222c202276616c75604d830152606d8201528351611ec881607284016020880161276e565b611ed6607282840101611c53565b979650505050505050565b60007f7b226e616d65223a20220000000000000000000000000000000000000000000082528451611f1981600a85016020890161276e565b80830190507f222c00000000000000000000000000000000000000000000000000000000000080600a8301527f226465736372697074696f6e223a20224d696e6563726166742062696f6d6520600c8301527f6d6564616c7320686174636865642066726f6d206f6e2d636861696e20747261602c8301527f6e73616374696f6e732e20416c736f20617661696c61626c65206173204d6574604c8301527f6163726166742773203230323220536561736f6e20506173732e222c00000000606c8301527f22696d616765223a22000000000000000000000000000000000000000000000060888301528551612016816091850160208a0161276e565b60919201918201527f2261747472696275746573223a205b0000000000000000000000000000000000609382015261205961205460a2830186611c37565b611c7c565b9695505050505050565b60007f646174613a6170706c69636174696f6e2f6a736f6e3b6261736536342c0000008252825161209b81601d85016020870161276e565b91909101601d0192915050565b60008582526bffffffffffffffffffffffff198560601b16602083015283603483015282516120de81605485016020870161276e565b9190910160540195945050505050565b6001600160a01b0391909116815260200190565b60006001600160a01b038087168352808616602084015250836040830152608060608301526120596080830184611c0b565b901515815260200190565b90815260200190565b6000602082526119686020830184611c0b565b60208082526032908201527f4552433732313a207472616e7366657220746f206e6f6e20455243373231526560408201527f63656976657220696d706c656d656e7465720000000000000000000000000000606082015260800190565b60208082526026908201527f4f776e61626c653a206e6577206f776e657220697320746865207a65726f206160408201527f6464726573730000000000000000000000000000000000000000000000000000606082015260800190565b6020808252601c908201527f4552433732313a20746f6b656e20616c7265616479206d696e74656400000000604082015260600190565b60208082526013908201527f6d617820737570706c7920697320313030303000000000000000000000000000604082015260600190565b60208082526015908201527f44726f7020616c726561647920636c61696d65642e0000000000000000000000604082015260600190565b60208082526024908201527f4552433732313a207472616e7366657220746f20746865207a65726f2061646460408201527f7265737300000000000000000000000000000000000000000000000000000000606082015260800190565b60208082526019908201527f4552433732313a20617070726f766520746f2063616c6c657200000000000000604082015260600190565b6020808252602c908201527f4552433732313a206f70657261746f7220717565727920666f72206e6f6e657860408201526b34b9ba32b73a103a37b5b2b760a11b606082015260800190565b60208082526038908201527f4552433732313a20617070726f76652063616c6c6572206973206e6f74206f7760408201527f6e6572206e6f7220617070726f76656420666f7220616c6c0000000000000000606082015260800190565b6020808252602a908201527f4552433732313a2062616c616e636520717565727920666f7220746865207a6560408201527f726f206164647265737300000000000000000000000000000000000000000000606082015260800190565b60208082526029908201527f4552433732313a206f776e657220717565727920666f72206e6f6e657869737460408201527f656e7420746f6b656e0000000000000000000000000000000000000000000000606082015260800190565b6020808252818101527f4552433732313a206d696e7420746f20746865207a65726f2061646472657373604082015260600190565b6020808252602c908201527f4552433732313a20617070726f76656420717565727920666f72206e6f6e657860408201526b34b9ba32b73a103a37b5b2b760a11b606082015260800190565b6020808252818101527f4f776e61626c653a2063616c6c6572206973206e6f7420746865206f776e6572604082015260600190565b60208082526029908201527f4552433732313a207472616e73666572206f6620746f6b656e2074686174206960408201527f73206e6f74206f776e0000000000000000000000000000000000000000000000606082015260800190565b60208082526021908201527f4552433732313a20617070726f76616c20746f2063757272656e74206f776e6560408201527f7200000000000000000000000000000000000000000000000000000000000000606082015260800190565b60208082526031908201527f4552433732313a207472616e736665722063616c6c6572206973206e6f74206f60408201527f776e6572206e6f7220617070726f766564000000000000000000000000000000606082015260800190565b6020808252600e908201527f496e76616c69642070726f6f662e000000000000000000000000000000000000604082015260600190565b60008582526001600160a01b0385166020830152836040830152608060608301526120596080830184611c0b565b6000848252606060208301526126fc6060830185611c0b565b9050826040830152949350505050565b6000821982111561271f5761271f612804565b500190565b6000826127335761273361281a565b500490565b600081600019048311821515161561275257612752612804565b500290565b60008282101561276957612769612804565b500390565b60005b83811015612789578181015183820152602001612771565b838111156108645750506000910152565b6002810460018216806127ae57607f821691505b602082108114156127cf57634e487b7160e01b600052602260045260246000fd5b50919050565b60006000198214156127e9576127e9612804565b5060010190565b6000826127ff576127ff61281a565b500690565b634e487b7160e01b600052601160045260246000fd5b634e487b7160e01b600052601260045260246000fd5b634e487b7160e01b600052604160045260246000fd5b6001600160e01b031981168114610b6e57600080fdfe4142434445464748494a4b4c4d4e4f505152535455565758595a6162636465666768696a6b6c6d6e6f707172737475767778797a303132333435363738392b2fa26469706673582212209c633221e2e17e2e70cb24a02377289b98e7233666d11f48037be20b1d5c5b5864736f6c6343000800003361723a2f2f4e4a4b74737749707938746e41526270505567616930524e6568676a6b4666566f5679497369532d56775561723a2f2f373165477836415f52764d636c646e4642306e7155325541334e67766963624a6f3232444f4a4a6c4c597361723a2f2f45714d387649554b462d7347697a2d5368496e586a7a636d73546f4b50507162794c6467674d6941694a6361723a2f2f443377775a636b794f51314e4c564d7a4a334372586c7777346669533471586e384851477550303971676761723a2f2f6754686953544264386e334e77734c5a6f3664676245574847796d4531652d37574e685f4f364973494e5961723a2f2f3467324d7145692d38622d4c6832465f5f6a744d35356478534b555a706335494a4732566c464a6437563461723a2f2f7851744b3445736f705556646c6557633847772d38615047482d7a4a397370757976457568784e74594e3861723a2f2f5f325065574653564b6877725a557652376833384a6b586d766c634239454d3678314439617166466a683861723a2f2f5f64495039675a726e496a6551557173463777386470705530716258645179457649696d7867347370735961723a2f2f4a4c686a50756f6d37777a64646f352d7167446c6b4c585a497568754a54454a69793835655f6b464b7a3861723a2f2f4d4c66616a6743626b796e6e325143747454597078726b434430703456653270306856595056716665436761723a2f2f62575f42317169642d626c4b475342527671544646495a6b56316c326f626e513544513853616e4161635161723a2f2f312d5f73662d3258786930306847787631356b374562564368446b4570366839626d467551436b4c736d7361723a2f2f7a685659647953567a666a79516b4c783059576358754c77784c6b4c4a303951334f46567572553031655961723a2f2f5570544a6e6d4a70567444326f41716357326d4d3255483857747a4c634c4e51487736535779303237686761723a2f2f5f4b597a6f704e596a53596373414655456f766a555966443864776e716c7755636f7873574470514b376761723a2f2f45756247314759306e5944336d7041577836396d585f33306d33655a4b4346364f373763535f6265714d5561723a2f2f52565a4f66565067656771596e7643707349344244613639585245695a6d536c73536d37485f366755306f61723a2f2f4d557336344f304b37326a7073713667715368754b79677a6c4c714f795a695a626d4449554a304d37686761723a2f2f543852416c42396d4f5932435968384c786f5650364e42504b6c7a6c2d47436b5a6266707362376c6b437361723a2f2f3050666558496d62496d4e465776304a366e594d726e414b5a6a755141765a6e3748715a6532544e6f5a3861723a2f2f723047764968304f723233516d6a6f336c4e4b39767a646d333431344374377747714339753074716a686b61723a2f2f72646533363769527944464a676e392d3433556675414b4c624e762d4575664637564b6643622d7550556f61723a2f2f676450356b6a565f6663386a433355423764756e69745f7679493050305a4c575357456c734973306f393861723a2f2f707377686656546d4d68395342395658756e5a394e72497442335a717a3449437a2d696f3263476566624961723a2f2f47524b7945335a7667586a696c726451355f5f314e4c365254697157352d6b547752356b7974346a66363861723a2f2f38716e4f5346714d4e6d5f4973693962396746345f415f754b75784f525f333572304e7353344c73704a7761723a2f2f673448336b716a416673686a42456f496b58364b7332566952744c3838617179666167355369304a44344961723a2f2f377670424f4533474a346b4a70363357386b57546e6647766b47477871463071564f6c54594b6d5f62457761723a2f2f506353596a77765751782d4a6f4d5545495069646e7750656374516a4b6732356c725458493478554c725161723a2f2f7975453546646a41484e494e716e5031345a57466c4b644a336b5651726d584647436a5f6b75306e422d3461723a2f2f6c727a724e747549476134693238684a59383175575369662d52745f5567344c4a335a4c43716e3847393061723a2f2f5a564d714a455468543276735f63594c37434d6434696a4c76557143394b6f7a324436736449315776476361723a2f2f374f324f754c48455363357a6a775654437242657537556e3954575541564e63594e65616f3374714a6d6761723a2f2f43307a66586e5875336a4959653667624a7a72344d434e614c69396e647147635f445a4f4b4c4a6562704561723a2f2f454d4c727352357676423669386d67673731415f5241482d6b4241343462652d6a54654e464961556d7063",
  "devdoc": {
    "kind": "dev",
    "methods": {
      "approve(address,uint256)": {
        "details": "See {IERC721-approve}."
      },
      "balanceOf(address)": {
        "details": "See {IERC721-balanceOf}."
      },
      "getApproved(uint256)": {
        "details": "See {IERC721-getApproved}."
      },
      "isApprovedForAll(address,address)": {
        "details": "See {IERC721-isApprovedForAll}."
      },
      "name()": {
        "details": "See {IERC721Metadata-name}."
      },
      "owner()": {
        "details": "Returns the address of the current owner."
      },
      "ownerOf(uint256)": {
        "details": "See {IERC721-ownerOf}."
      },
      "renounceOwnership()": {
        "details": "Leaves the contract without owner. It will not be possible to call `onlyOwner` functions anymore. Can only be called by the current owner. NOTE: Renouncing ownership will leave the contract without an owner, thereby removing any functionality that is only available to the owner."
      },
      "safeTransferFrom(address,address,uint256)": {
        "details": "See {IERC721-safeTransferFrom}."
      },
      "safeTransferFrom(address,address,uint256,bytes)": {
        "details": "See {IERC721-safeTransferFrom}."
      },
      "setApprovalForAll(address,bool)": {
        "details": "See {IERC721-setApprovalForAll}."
      },
      "supportsInterface(bytes4)": {
        "details": "See {IERC165-supportsInterface}."
      },
      "symbol()": {
        "details": "See {IERC721Metadata-symbol}."
      },
      "tokenURI(uint256)": {
        "details": "See {IERC721Metadata-tokenURI}."
      },
      "transferFrom(address,address,uint256)": {
        "details": "See {IERC721-transferFrom}."
      },
      "transferOwnership(address)": {
        "details": "Transfers ownership of the contract to a new account (`newOwner`). Can only be called by the current owner."
      }
    },
    "version": 1
  },
  "userdoc": {
    "kind": "user",
    "methods": {},
    "version": 1
  },
  "storageLayout": {
    "storage": [
      {
        "astId": 130,
        "contract": "contracts/MerkleDistributor.sol:MerkleDistributor",
        "label": "_name",
        "offset": 0,
        "slot": "0",
        "type": "t_string_storage"
      },
      {
        "astId": 132,
        "contract": "contracts/MerkleDistributor.sol:MerkleDistributor",
        "label": "_symbol",
        "offset": 0,
        "slot": "1",
        "type": "t_string_storage"
      },
      {
        "astId": 136,
        "contract": "contracts/MerkleDistributor.sol:MerkleDistributor",
        "label": "_owners",
        "offset": 0,
        "slot": "2",
        "type": "t_mapping(t_uint256,t_address)"
      },
      {
        "astId": 140,
        "contract": "contracts/MerkleDistributor.sol:MerkleDistributor",
        "label": "_balances",
        "offset": 0,
        "slot": "3",
        "type": "t_mapping(t_address,t_uint256)"
      },
      {
        "astId": 144,
        "contract": "contracts/MerkleDistributor.sol:MerkleDistributor",
        "label": "_tokenApprovals",
        "offset": 0,
        "slot": "4",
        "type": "t_mapping(t_uint256,t_address)"
      },
      {
        "astId": 150,
        "contract": "contracts/MerkleDistributor.sol:MerkleDistributor",
        "label": "_operatorApprovals",
        "offset": 0,
        "slot": "5",
        "type": "t_mapping(t_address,t_mapping(t_address,t_bool))"
      },
      {
        "astId": 7,
        "contract": "contracts/MerkleDistributor.sol:MerkleDistributor",
        "label": "_owner",
        "offset": 0,
        "slot": "6",
        "type": "t_address"
      },
      {
        "astId": 1822,
        "contract": "contracts/MerkleDistributor.sol:MerkleDistributor",
        "label": "count",
        "offset": 0,
        "slot": "7",
        "type": "t_uint256"
      },
      {
        "astId": 1829,
        "contract": "contracts/MerkleDistributor.sol:MerkleDistributor",
        "label": "claimedBitMap",
        "offset": 0,
        "slot": "8",
        "type": "t_mapping(t_uint256,t_uint256)"
      },
      {
        "astId": 1833,
        "contract": "contracts/MerkleDistributor.sol:MerkleDistributor",
        "label": "urlMap",
        "offset": 0,
        "slot": "9",
        "type": "t_mapping(t_string_memory_ptr,t_string_storage)"
      },
      {
        "astId": 1838,
        "contract": "contracts/MerkleDistributor.sol:MerkleDistributor",
        "label": "tokenSummary",
        "offset": 0,
        "slot": "10",
        "type": "t_mapping(t_uint256,t_struct(Summary)1819_storage)"
      }
    ],
    "types": {
      "t_address": {
        "encoding": "inplace",
        "label": "address",
        "numberOfBytes": "20"
      },
      "t_bool": {
        "encoding": "inplace",
        "label": "bool",
        "numberOfBytes": "1"
      },
      "t_mapping(t_address,t_bool)": {
        "encoding": "mapping",
        "key": "t_address",
        "label": "mapping(address => bool)",
        "numberOfBytes": "32",
        "value": "t_bool"
      },
      "t_mapping(t_address,t_mapping(t_address,t_bool))": {
        "encoding": "mapping",
        "key": "t_address",
        "label": "mapping(address => mapping(address => bool))",
        "numberOfBytes": "32",
        "value": "t_mapping(t_address,t_bool)"
      },
      "t_mapping(t_address,t_uint256)": {
        "encoding": "mapping",
        "key": "t_address",
        "label": "mapping(address => uint256)",
        "numberOfBytes": "32",
        "value": "t_uint256"
      },
      "t_mapping(t_string_memory_ptr,t_string_storage)": {
        "encoding": "mapping",
        "key": "t_string_memory_ptr",
        "label": "mapping(string => string)",
        "numberOfBytes": "32",
        "value": "t_string_storage"
      },
      "t_mapping(t_uint256,t_address)": {
        "encoding": "mapping",
        "key": "t_uint256",
        "label": "mapping(uint256 => address)",
        "numberOfBytes": "32",
        "value": "t_address"
      },
      "t_mapping(t_uint256,t_struct(Summary)1819_storage)": {
        "encoding": "mapping",
        "key": "t_uint256",
        "label": "mapping(uint256 => struct MerkleDistributor.Summary)",
        "numberOfBytes": "32",
        "value": "t_struct(Summary)1819_storage"
      },
      "t_mapping(t_uint256,t_uint256)": {
        "encoding": "mapping",
        "key": "t_uint256",
        "label": "mapping(uint256 => uint256)",
        "numberOfBytes": "32",
        "value": "t_uint256"
      },
      "t_string_memory_ptr": {
        "encoding": "bytes",
        "label": "string",
        "numberOfBytes": "32"
      },
      "t_string_storage": {
        "encoding": "bytes",
        "label": "string",
        "numberOfBytes": "32"
      },
      "t_struct(Summary)1819_storage": {
        "encoding": "inplace",
        "label": "struct MerkleDistributor.Summary",
        "members": [
          {
            "astId": 1814,
            "contract": "contracts/MerkleDistributor.sol:MerkleDistributor",
            "label": "score",
            "offset": 0,
            "slot": "0",
            "type": "t_uint256"
          },
          {
            "astId": 1816,
            "contract": "contracts/MerkleDistributor.sol:MerkleDistributor",
            "label": "creature",
            "offset": 0,
            "slot": "1",
            "type": "t_string_storage"
          },
          {
            "astId": 1818,
            "contract": "contracts/MerkleDistributor.sol:MerkleDistributor",
            "label": "index",
            "offset": 0,
            "slot": "2",
            "type": "t_uint256"
          }
        ],
        "numberOfBytes": "96"
      },
      "t_uint256": {
        "encoding": "inplace",
        "label": "uint256",
        "numberOfBytes": "32"
      }
    }
  }
}