{
  "address": "0x100345857F361086e07B7d189639a8584daaB5a9",
  "abi": [
    {
      "inputs": [
        {
          "internalType": "bytes32",
          "name": "merkleRoot_",
          "type": "bytes32"
        }
      ],
      "stateMutability": "nonpayable",
      "type": "constructor"
    },
    {
      "anonymous": false,
      "inputs": [
        {
          "indexed": true,
          "internalType": "address",
          "name": "owner",
          "type": "address"
        },
        {
          "indexed": true,
          "internalType": "address",
          "name": "approved",
          "type": "address"
        },
        {
          "indexed": true,
          "internalType": "uint256",
          "name": "tokenId",
          "type": "uint256"
        }
      ],
      "name": "Approval",
      "type": "event"
    },
    {
      "anonymous": false,
      "inputs": [
        {
          "indexed": true,
          "internalType": "address",
          "name": "owner",
          "type": "address"
        },
        {
          "indexed": true,
          "internalType": "address",
          "name": "operator",
          "type": "address"
        },
        {
          "indexed": false,
          "internalType": "bool",
          "name": "approved",
          "type": "bool"
        }
      ],
      "name": "ApprovalForAll",
      "type": "event"
    },
    {
      "anonymous": false,
      "inputs": [
        {
          "indexed": false,
          "internalType": "uint256",
          "name": "index",
          "type": "uint256"
        },
        {
          "indexed": false,
          "internalType": "address",
          "name": "account",
          "type": "address"
        },
        {
          "indexed": false,
          "internalType": "uint256",
          "name": "score",
          "type": "uint256"
        },
        {
          "indexed": false,
          "internalType": "string",
          "name": "creature",
          "type": "string"
        }
      ],
      "name": "Claimed",
      "type": "event"
    },
    {
      "anonymous": false,
      "inputs": [
        {
          "indexed": true,
          "internalType": "address",
          "name": "previousOwner",
          "type": "address"
        },
        {
          "indexed": true,
          "internalType": "address",
          "name": "newOwner",
          "type": "address"
        }
      ],
      "name": "OwnershipTransferred",
      "type": "event"
    },
    {
      "anonymous": false,
      "inputs": [
        {
          "indexed": true,
          "internalType": "address",
          "name": "from",
          "type": "address"
        },
        {
          "indexed": true,
          "internalType": "address",
          "name": "to",
          "type": "address"
        },
        {
          "indexed": true,
          "internalType": "uint256",
          "name": "tokenId",
          "type": "uint256"
        }
      ],
      "name": "Transfer",
      "type": "event"
    },
    {
      "inputs": [
        {
          "internalType": "address",
          "name": "to",
          "type": "address"
        },
        {
          "internalType": "uint256",
          "name": "tokenId",
          "type": "uint256"
        }
      ],
      "name": "approve",
      "outputs": [],
      "stateMutability": "nonpayable",
      "type": "function"
    },
    {
      "inputs": [
        {
          "internalType": "address",
          "name": "owner",
          "type": "address"
        }
      ],
      "name": "balanceOf",
      "outputs": [
        {
          "internalType": "uint256",
          "name": "",
          "type": "uint256"
        }
      ],
      "stateMutability": "view",
      "type": "function"
    },
    {
      "inputs": [
        {
          "internalType": "uint256",
          "name": "index",
          "type": "uint256"
        },
        {
          "internalType": "address",
          "name": "account",
          "type": "address"
        },
        {
          "internalType": "uint256",
          "name": "score",
          "type": "uint256"
        },
        {
          "internalType": "string",
          "name": "creature",
          "type": "string"
        },
        {
          "internalType": "bytes32[]",
          "name": "merkleProof",
          "type": "bytes32[]"
        }
      ],
      "name": "claim",
      "outputs": [],
      "stateMutability": "nonpayable",
      "type": "function"
    },
    {
      "inputs": [
        {
          "internalType": "uint256",
          "name": "tokenId",
          "type": "uint256"
        }
      ],
      "name": "getApproved",
      "outputs": [
        {
          "internalType": "address",
          "name": "",
          "type": "address"
        }
      ],
      "stateMutability": "view",
      "type": "function"
    },
    {
      "inputs": [
        {
          "internalType": "address",
          "name": "owner",
          "type": "address"
        },
        {
          "internalType": "address",
          "name": "operator",
          "type": "address"
        }
      ],
      "name": "isApprovedForAll",
      "outputs": [
        {
          "internalType": "bool",
          "name": "",
          "type": "bool"
        }
      ],
      "stateMutability": "view",
      "type": "function"
    },
    {
      "inputs": [
        {
          "internalType": "uint256",
          "name": "index",
          "type": "uint256"
        }
      ],
      "name": "isClaimed",
      "outputs": [
        {
          "internalType": "bool",
          "name": "",
          "type": "bool"
        }
      ],
      "stateMutability": "view",
      "type": "function"
    },
    {
      "inputs": [],
      "name": "merkleRoot",
      "outputs": [
        {
          "internalType": "bytes32",
          "name": "",
          "type": "bytes32"
        }
      ],
      "stateMutability": "view",
      "type": "function"
    },
    {
      "inputs": [],
      "name": "name",
      "outputs": [
        {
          "internalType": "string",
          "name": "",
          "type": "string"
        }
      ],
      "stateMutability": "view",
      "type": "function"
    },
    {
      "inputs": [],
      "name": "owner",
      "outputs": [
        {
          "internalType": "address",
          "name": "",
          "type": "address"
        }
      ],
      "stateMutability": "view",
      "type": "function"
    },
    {
      "inputs": [
        {
          "internalType": "uint256",
          "name": "tokenId",
          "type": "uint256"
        }
      ],
      "name": "ownerOf",
      "outputs": [
        {
          "internalType": "address",
          "name": "",
          "type": "address"
        }
      ],
      "stateMutability": "view",
      "type": "function"
    },
    {
      "inputs": [],
      "name": "renounceOwnership",
      "outputs": [],
      "stateMutability": "nonpayable",
      "type": "function"
    },
    {
      "inputs": [
        {
          "internalType": "address",
          "name": "from",
          "type": "address"
        },
        {
          "internalType": "address",
          "name": "to",
          "type": "address"
        },
        {
          "internalType": "uint256",
          "name": "tokenId",
          "type": "uint256"
        }
      ],
      "name": "safeTransferFrom",
      "outputs": [],
      "stateMutability": "nonpayable",
      "type": "function"
    },
    {
      "inputs": [
        {
          "internalType": "address",
          "name": "from",
          "type": "address"
        },
        {
          "internalType": "address",
          "name": "to",
          "type": "address"
        },
        {
          "internalType": "uint256",
          "name": "tokenId",
          "type": "uint256"
        },
        {
          "internalType": "bytes",
          "name": "_data",
          "type": "bytes"
        }
      ],
      "name": "safeTransferFrom",
      "outputs": [],
      "stateMutability": "nonpayable",
      "type": "function"
    },
    {
      "inputs": [
        {
          "internalType": "address",
          "name": "operator",
          "type": "address"
        },
        {
          "internalType": "bool",
          "name": "approved",
          "type": "bool"
        }
      ],
      "name": "setApprovalForAll",
      "outputs": [],
      "stateMutability": "nonpayable",
      "type": "function"
    },
    {
      "inputs": [
        {
          "internalType": "bytes4",
          "name": "interfaceId",
          "type": "bytes4"
        }
      ],
      "name": "supportsInterface",
      "outputs": [
        {
          "internalType": "bool",
          "name": "",
          "type": "bool"
        }
      ],
      "stateMutability": "view",
      "type": "function"
    },
    {
      "inputs": [],
      "name": "symbol",
      "outputs": [
        {
          "internalType": "string",
          "name": "",
          "type": "string"
        }
      ],
      "stateMutability": "view",
      "type": "function"
    },
    {
      "inputs": [
        {
          "internalType": "uint256",
          "name": "tokenId",
          "type": "uint256"
        }
      ],
      "name": "tokenURI",
      "outputs": [
        {
          "internalType": "string",
          "name": "",
          "type": "string"
        }
      ],
      "stateMutability": "view",
      "type": "function"
    },
    {
      "inputs": [
        {
          "internalType": "address",
          "name": "from",
          "type": "address"
        },
        {
          "internalType": "address",
          "name": "to",
          "type": "address"
        },
        {
          "internalType": "uint256",
          "name": "tokenId",
          "type": "uint256"
        }
      ],
      "name": "transferFrom",
      "outputs": [],
      "stateMutability": "nonpayable",
      "type": "function"
    },
    {
      "inputs": [
        {
          "internalType": "address",
          "name": "newOwner",
          "type": "address"
        }
      ],
      "name": "transferOwnership",
      "outputs": [],
      "stateMutability": "nonpayable",
      "type": "function"
    }
  ],
  "transactionHash": "0x81c550e88002b11f56c102d4400fcbc8f882b533a8e71f86e806bca8dfb12b81",
  "args": [
    "0x1fe4549be478cc1af80780fc09cb768475822ca88620eb584119767377b7b00d"
  ],
  "numDeployments": 2,
  "solcInputHash": "19f75b08eb15ec933d6f8442d93afb75",
  "bytecode": "0x60a06040523480156200001157600080fd5b5060405162001e4c38038062001e4c8339810160408190526200003491620001b0565b6040805180820182526009808252681b595d1858dc98599d60ba1b60208084018281528551808701909652928552840152815191929162000078916000916200010a565b5080516200008e9060019060208401906200010a565b505050620000ab620000a5620000b460201b60201c565b620000b8565b60805262000206565b3390565b600680546001600160a01b038381166001600160a01b0319831681179093556040519116919082907f8be0079c531659141344cd1fd0a4f28419497f9722a3daafe3b4186f6b6457e090600090a35050565b8280546200011890620001c9565b90600052602060002090601f0160209004810192826200013c576000855562000187565b82601f106200015757805160ff191683800117855562000187565b8280016001018555821562000187579182015b82811115620001875782518255916020019190600101906200016a565b506200019592915062000199565b5090565b5b808211156200019557600081556001016200019a565b600060208284031215620001c2578081fd5b5051919050565b600281046001821680620001de57607f821691505b602082108114156200020057634e487b7160e01b600052602260045260246000fd5b50919050565b608051611c2362000229600039600081816104f101526107f50152611c236000f3fe608060405234801561001057600080fd5b50600436106101515760003560e01c8063715018a6116100cd578063b88d4fde11610081578063e985e9c511610066578063e985e9c51461028e578063f2fde38b146102a1578063f6bf2a59146102b457610151565b8063b88d4fde14610268578063c87b56dd1461027b57610151565b806395d89b41116100b257806395d89b411461023a5780639e34070f14610242578063a22cb4651461025557610151565b8063715018a61461022a5780638da5cb5b1461023257610151565b806323b872dd1161012457806342842e0e1161010957806342842e0e146101f15780636352211e1461020457806370a082311461021757610151565b806323b872dd146101c95780632eb4a7ab146101dc57610151565b806301ffc9a71461015657806306fdde031461017f578063081812fc14610194578063095ea7b3146101b4575b600080fd5b6101696101643660046111c7565b6102c7565b60405161017691906113b3565b60405180910390f35b610187610341565b60405161017691906113c7565b6101a76101a23660046111ff565b6103d3565b6040516101769190611363565b6101c76101c236600461119e565b61041f565b005b6101c76101d73660046110b0565b6104b7565b6101e46104ef565b60405161017691906113be565b6101c76101ff3660046110b0565b610513565b6101a76102123660046111ff565b61052e565b6101e461022536600461105d565b610563565b6101c76105a7565b6101a76105f2565b610187610601565b6101696102503660046111ff565b610610565b6101c7610263366004611164565b610651565b6101c76102763660046110eb565b610667565b6101876102893660046111ff565b6106a6565b61016961029c36600461107e565b6106ca565b6101c76102af36600461105d565b6106f8565b6101c76102c2366004611217565b610769565b60006001600160e01b031982167f80ac58cd00000000000000000000000000000000000000000000000000000000148061032a57506001600160e01b031982167f5b5e139f00000000000000000000000000000000000000000000000000000000145b80610339575061033982610895565b90505b919050565b606060008054610350906119e6565b80601f016020809104026020016040519081016040528092919081815260200182805461037c906119e6565b80156103c95780601f1061039e576101008083540402835291602001916103c9565b820191906000526020600020905b8154815290600101906020018083116103ac57829003601f168201915b5050505050905090565b60006103de826108c7565b6104035760405162461bcd60e51b81526004016103fa906117b1565b60405180910390fd5b506000908152600460205260409020546001600160a01b031690565b600061042a8261052e565b9050806001600160a01b0316836001600160a01b0316141561045e5760405162461bcd60e51b81526004016103fa9061188f565b806001600160a01b03166104706108e4565b6001600160a01b0316148061048c575061048c8161029c6108e4565b6104a85760405162461bcd60e51b81526004016103fa90611665565b6104b283836108e8565b505050565b6104c86104c26108e4565b82610963565b6104e45760405162461bcd60e51b81526004016103fa906118ec565b6104b28383836109e8565b7f000000000000000000000000000000000000000000000000000000000000000081565b6104b283838360405180602001604052806000815250610667565b6000818152600260205260408120546001600160a01b0316806103395760405162461bcd60e51b81526004016103fa9061171f565b60006001600160a01b03821661058b5760405162461bcd60e51b81526004016103fa906116c2565b506001600160a01b031660009081526003602052604090205490565b6105af6108e4565b6001600160a01b03166105c06105f2565b6001600160a01b0316146105e65760405162461bcd60e51b81526004016103fa906117fd565b6105f06000610b22565b565b6006546001600160a01b031690565b606060018054610350906119e6565b60008061061f6101008461198f565b9050600061062f61010085611a3c565b60009283526007602052604090922054600190921b9182169091149392505050565b61066361065c6108e4565b8383610b81565b5050565b6106786106726108e4565b83610963565b6106945760405162461bcd60e51b81526004016103fa906118ec565b6106a084848484610c24565b50505050565b60606040518061018001604052806101458152602001611aa9610145913992915050565b6001600160a01b03918216600090815260056020908152604080832093909416825291909152205460ff1690565b6107006108e4565b6001600160a01b03166107116105f2565b6001600160a01b0316146107375760405162461bcd60e51b81526004016103fa906117fd565b6001600160a01b03811661075d5760405162461bcd60e51b81526004016103fa90611437565b61076681610b22565b50565b61077286610610565b1561078f5760405162461bcd60e51b81526004016103fa906114cb565b6000868686866040516020016107a8949392919061131d565b6040516020818303038152906040528051906020012090506108208383808060200260200160405190810160405280939291908181526020018383602002808284376000920191909152507f00000000000000000000000000000000000000000000000000000000000000009250859150610c579050565b61083c5760405162461bcd60e51b81526004016103fa90611608565b61084587610c6d565b61084f8688610cab565b7fee563d8e532abc293fca2fdeb41c25180305bddcf9206c167dab3e155aaf1713878787876040516108849493929190611949565b60405180910390a150505050505050565b6001600160e01b031981167f01ffc9a70000000000000000000000000000000000000000000000000000000014919050565b6000908152600260205260409020546001600160a01b0316151590565b3390565b6000818152600460205260409020805473ffffffffffffffffffffffffffffffffffffffff19166001600160a01b038416908117909155819061092a8261052e565b6001600160a01b03167f8c5be1e5ebec7d5bd14f71427d1e84f3dd0314c0f7b2291e5b200ac8c7c3b92560405160405180910390a45050565b600061096e826108c7565b61098a5760405162461bcd60e51b81526004016103fa906115bc565b60006109958361052e565b9050806001600160a01b0316846001600160a01b031614806109d05750836001600160a01b03166109c5846103d3565b6001600160a01b0316145b806109e057506109e081856106ca565b949350505050565b826001600160a01b03166109fb8261052e565b6001600160a01b031614610a215760405162461bcd60e51b81526004016103fa90611832565b6001600160a01b038216610a475760405162461bcd60e51b81526004016103fa90611528565b610a528383836104b2565b610a5d6000826108e8565b6001600160a01b0383166000908152600360205260408120805460019290610a869084906119a3565b90915550506001600160a01b0382166000908152600360205260408120805460019290610ab4908490611977565b9091555050600081815260026020526040808220805473ffffffffffffffffffffffffffffffffffffffff19166001600160a01b0386811691821790925591518493918716917fddf252ad1be2c89b69c2b068fc378daa952ba7f163c4a11628f55a4df523b3ef91a4505050565b600680546001600160a01b0383811673ffffffffffffffffffffffffffffffffffffffff19831681179093556040519116919082907f8be0079c531659141344cd1fd0a4f28419497f9722a3daafe3b4186f6b6457e090600090a35050565b816001600160a01b0316836001600160a01b03161415610bb35760405162461bcd60e51b81526004016103fa90611585565b6001600160a01b0383811660008181526005602090815260408083209487168084529490915290819020805460ff1916851515179055517f17307eab39ab6107e8899845ad3d59bd9653f200f220920489ca2b5937696c3190610c179085906113b3565b60405180910390a3505050565b610c2f8484846109e8565b610c3b84848484610cc5565b6106a05760405162461bcd60e51b81526004016103fa906113da565b600082610c648584610df9565b14949350505050565b6000610c7b6101008361198f565b90506000610c8b61010084611a3c565b6000928352600760205260409092208054600190931b9092179091555050565b610663828260405180602001604052806000815250610eb1565b6000610cd9846001600160a01b0316610ee4565b15610dee57836001600160a01b031663150b7a02610cf56108e4565b8786866040518563ffffffff1660e01b8152600401610d179493929190611377565b602060405180830381600087803b158015610d3157600080fd5b505af1925050508015610d61575060408051601f3d908101601f19168201909252610d5e918101906111e3565b60015b610dbb573d808015610d8f576040519150601f19603f3d011682016040523d82523d6000602084013e610d94565b606091505b508051610db35760405162461bcd60e51b81526004016103fa906113da565b805181602001fd5b6001600160e01b0319167f150b7a02000000000000000000000000000000000000000000000000000000001490506109e0565b506001949350505050565b600081815b8451811015610ea9576000858281518110610e2957634e487b7160e01b600052603260045260246000fd5b60200260200101519050808311610e6a578281604051602001610e4d92919061130f565b604051602081830303815290604052805190602001209250610e96565b8083604051602001610e7d92919061130f565b6040516020818303038152906040528051906020012092505b5080610ea181611a21565b915050610dfe565b509392505050565b610ebb8383610eea565b610ec86000848484610cc5565b6104b25760405162461bcd60e51b81526004016103fa906113da565b3b151590565b6001600160a01b038216610f105760405162461bcd60e51b81526004016103fa9061177c565b610f19816108c7565b15610f365760405162461bcd60e51b81526004016103fa90611494565b610f42600083836104b2565b6001600160a01b0382166000908152600360205260408120805460019290610f6b908490611977565b9091555050600081815260026020526040808220805473ffffffffffffffffffffffffffffffffffffffff19166001600160a01b03861690811790915590518392907fddf252ad1be2c89b69c2b068fc378daa952ba7f163c4a11628f55a4df523b3ef908290a45050565b600067ffffffffffffffff80841115610ff157610ff1611a7c565b604051601f8501601f19168101602001828111828210171561101557611015611a7c565b60405284815291508183850186101561102d57600080fd5b8484602083013760006020868301015250509392505050565b80356001600160a01b038116811461033c57600080fd5b60006020828403121561106e578081fd5b61107782611046565b9392505050565b60008060408385031215611090578081fd5b61109983611046565b91506110a760208401611046565b90509250929050565b6000806000606084860312156110c4578081fd5b6110cd84611046565b92506110db60208501611046565b9150604084013590509250925092565b60008060008060808587031215611100578081fd5b61110985611046565b935061111760208601611046565b925060408501359150606085013567ffffffffffffffff811115611139578182fd5b8501601f81018713611149578182fd5b61115887823560208401610fd6565b91505092959194509250565b60008060408385031215611176578182fd5b61117f83611046565b915060208301358015158114611193578182fd5b809150509250929050565b600080604083850312156111b0578182fd5b6111b983611046565b946020939093013593505050565b6000602082840312156111d8578081fd5b813561107781611a92565b6000602082840312156111f4578081fd5b815161107781611a92565b600060208284031215611210578081fd5b5035919050565b60008060008060008060a0878903121561122f578182fd5b8635955061123f60208801611046565b945060408701359350606087013567ffffffffffffffff80821115611262578384fd5b818901915089601f830112611275578384fd5b6112848a833560208501610fd6565b94506080890135915080821115611299578384fd5b818901915089601f8301126112ac578384fd5b8135818111156112ba578485fd5b8a602080830285010111156112cd578485fd5b6020830194508093505050509295509295509295565b600081518084526112fb8160208601602086016119ba565b601f01601f19169290920160200192915050565b918252602082015260400190565b60008582526bffffffffffffffffffffffff198560601b16602083015283603483015282516113538160548501602087016119ba565b9190910160540195945050505050565b6001600160a01b0391909116815260200190565b60006001600160a01b038087168352808616602084015250836040830152608060608301526113a960808301846112e3565b9695505050505050565b901515815260200190565b90815260200190565b60006020825261107760208301846112e3565b60208082526032908201527f4552433732313a207472616e7366657220746f206e6f6e20455243373231526560408201527f63656976657220696d706c656d656e7465720000000000000000000000000000606082015260800190565b60208082526026908201527f4f776e61626c653a206e6577206f776e657220697320746865207a65726f206160408201527f6464726573730000000000000000000000000000000000000000000000000000606082015260800190565b6020808252601c908201527f4552433732313a20746f6b656e20616c7265616479206d696e74656400000000604082015260600190565b60208082526028908201527f4d65726b6c654469737472696275746f723a2044726f7020616c72656164792060408201527f636c61696d65642e000000000000000000000000000000000000000000000000606082015260800190565b60208082526024908201527f4552433732313a207472616e7366657220746f20746865207a65726f2061646460408201527f7265737300000000000000000000000000000000000000000000000000000000606082015260800190565b60208082526019908201527f4552433732313a20617070726f766520746f2063616c6c657200000000000000604082015260600190565b6020808252602c908201527f4552433732313a206f70657261746f7220717565727920666f72206e6f6e657860408201526b34b9ba32b73a103a37b5b2b760a11b606082015260800190565b60208082526021908201527f4d65726b6c654469737472696275746f723a20496e76616c69642070726f6f6660408201527f2e00000000000000000000000000000000000000000000000000000000000000606082015260800190565b60208082526038908201527f4552433732313a20617070726f76652063616c6c6572206973206e6f74206f7760408201527f6e6572206e6f7220617070726f76656420666f7220616c6c0000000000000000606082015260800190565b6020808252602a908201527f4552433732313a2062616c616e636520717565727920666f7220746865207a6560408201527f726f206164647265737300000000000000000000000000000000000000000000606082015260800190565b60208082526029908201527f4552433732313a206f776e657220717565727920666f72206e6f6e657869737460408201527f656e7420746f6b656e0000000000000000000000000000000000000000000000606082015260800190565b6020808252818101527f4552433732313a206d696e7420746f20746865207a65726f2061646472657373604082015260600190565b6020808252602c908201527f4552433732313a20617070726f76656420717565727920666f72206e6f6e657860408201526b34b9ba32b73a103a37b5b2b760a11b606082015260800190565b6020808252818101527f4f776e61626c653a2063616c6c6572206973206e6f7420746865206f776e6572604082015260600190565b60208082526029908201527f4552433732313a207472616e73666572206f6620746f6b656e2074686174206960408201527f73206e6f74206f776e0000000000000000000000000000000000000000000000606082015260800190565b60208082526021908201527f4552433732313a20617070726f76616c20746f2063757272656e74206f776e6560408201527f7200000000000000000000000000000000000000000000000000000000000000606082015260800190565b60208082526031908201527f4552433732313a207472616e736665722063616c6c6572206973206e6f74206f60408201527f776e6572206e6f7220617070726f766564000000000000000000000000000000606082015260800190565b60008582526001600160a01b0385166020830152836040830152608060608301526113a960808301846112e3565b6000821982111561198a5761198a611a50565b500190565b60008261199e5761199e611a66565b500490565b6000828210156119b5576119b5611a50565b500390565b60005b838110156119d55781810151838201526020016119bd565b838111156106a05750506000910152565b6002810460018216806119fa57607f821691505b60208210811415611a1b57634e487b7160e01b600052602260045260246000fd5b50919050565b6000600019821415611a3557611a35611a50565b5060010190565b600082611a4b57611a4b611a66565b500690565b634e487b7160e01b600052601160045260246000fd5b634e487b7160e01b600052601260045260246000fd5b634e487b7160e01b600052604160045260246000fd5b6001600160e01b03198116811461076657600080fdfe646174613a6170706c69636174696f6e2f6a736f6e3b6261736536342c65776f6749434a755957316c496a6f67496b686c636d4a705a53425464474679596d567362486b694c416f6749434a6b5a584e6a636d6c7764476c766269493649434a47636d6c6c626d527365534250634756755532566849454e795a57463064584a6c4948526f595851675a57357162336c7a49477876626d63676333647062584d67615734676447686c4947396a5a5746754c69497343694167496d6c745957646c496a6f67496d68306448427a4f69387663335276636d466e5a53356e6232396e6247566863476c7a4c6d4e766253397663475675633256684c5842796232517559584277633342766443356a6232307659334a6c59585231636d55764e5441756347356e4969774b4943416959585230636d6c696458526c6379493649467464436e303da264697066735822122020fb68e40348b099de132961295fb6152b3c261441bdb7e6df1d9c42c94b593c64736f6c63430008000033",
  "devdoc": {
    "kind": "dev",
    "methods": {
      "approve(address,uint256)": {
        "details": "See {IERC721-approve}."
      },
      "balanceOf(address)": {
        "details": "See {IERC721-balanceOf}."
      },
      "getApproved(uint256)": {
        "details": "See {IERC721-getApproved}."
      },
      "isApprovedForAll(address,address)": {
        "details": "See {IERC721-isApprovedForAll}."
      },
      "name()": {
        "details": "See {IERC721Metadata-name}."
      },
      "owner()": {
        "details": "Returns the address of the current owner."
      },
      "ownerOf(uint256)": {
        "details": "See {IERC721-ownerOf}."
      },
      "renounceOwnership()": {
        "details": "Leaves the contract without owner. It will not be possible to call `onlyOwner` functions anymore. Can only be called by the current owner. NOTE: Renouncing ownership will leave the contract without an owner, thereby removing any functionality that is only available to the owner."
      },
      "safeTransferFrom(address,address,uint256)": {
        "details": "See {IERC721-safeTransferFrom}."
      },
      "safeTransferFrom(address,address,uint256,bytes)": {
        "details": "See {IERC721-safeTransferFrom}."
      },
      "setApprovalForAll(address,bool)": {
        "details": "See {IERC721-setApprovalForAll}."
      },
      "supportsInterface(bytes4)": {
        "details": "See {IERC165-supportsInterface}."
      },
      "symbol()": {
        "details": "See {IERC721Metadata-symbol}."
      },
      "tokenURI(uint256)": {
        "details": "See {IERC721Metadata-tokenURI}."
      },
      "transferFrom(address,address,uint256)": {
        "details": "See {IERC721-transferFrom}."
      },
      "transferOwnership(address)": {
        "details": "Transfers ownership of the contract to a new account (`newOwner`). Can only be called by the current owner."
      }
    },
    "version": 1
  },
  "userdoc": {
    "kind": "user",
    "methods": {},
    "version": 1
  },
  "storageLayout": {
    "storage": [
      {
        "astId": 130,
        "contract": "contracts/MerkleDistributor.sol:MerkleDistributor",
        "label": "_name",
        "offset": 0,
        "slot": "0",
        "type": "t_string_storage"
      },
      {
        "astId": 132,
        "contract": "contracts/MerkleDistributor.sol:MerkleDistributor",
        "label": "_symbol",
        "offset": 0,
        "slot": "1",
        "type": "t_string_storage"
      },
      {
        "astId": 136,
        "contract": "contracts/MerkleDistributor.sol:MerkleDistributor",
        "label": "_owners",
        "offset": 0,
        "slot": "2",
        "type": "t_mapping(t_uint256,t_address)"
      },
      {
        "astId": 140,
        "contract": "contracts/MerkleDistributor.sol:MerkleDistributor",
        "label": "_balances",
        "offset": 0,
        "slot": "3",
        "type": "t_mapping(t_address,t_uint256)"
      },
      {
        "astId": 144,
        "contract": "contracts/MerkleDistributor.sol:MerkleDistributor",
        "label": "_tokenApprovals",
        "offset": 0,
        "slot": "4",
        "type": "t_mapping(t_uint256,t_address)"
      },
      {
        "astId": 150,
        "contract": "contracts/MerkleDistributor.sol:MerkleDistributor",
        "label": "_operatorApprovals",
        "offset": 0,
        "slot": "5",
        "type": "t_mapping(t_address,t_mapping(t_address,t_bool))"
      },
      {
        "astId": 7,
        "contract": "contracts/MerkleDistributor.sol:MerkleDistributor",
        "label": "_owner",
        "offset": 0,
        "slot": "6",
        "type": "t_address"
      },
      {
        "astId": 1761,
        "contract": "contracts/MerkleDistributor.sol:MerkleDistributor",
        "label": "claimedBitMap",
        "offset": 0,
        "slot": "7",
        "type": "t_mapping(t_uint256,t_uint256)"
      }
    ],
    "types": {
      "t_address": {
        "encoding": "inplace",
        "label": "address",
        "numberOfBytes": "20"
      },
      "t_bool": {
        "encoding": "inplace",
        "label": "bool",
        "numberOfBytes": "1"
      },
      "t_mapping(t_address,t_bool)": {
        "encoding": "mapping",
        "key": "t_address",
        "label": "mapping(address => bool)",
        "numberOfBytes": "32",
        "value": "t_bool"
      },
      "t_mapping(t_address,t_mapping(t_address,t_bool))": {
        "encoding": "mapping",
        "key": "t_address",
        "label": "mapping(address => mapping(address => bool))",
        "numberOfBytes": "32",
        "value": "t_mapping(t_address,t_bool)"
      },
      "t_mapping(t_address,t_uint256)": {
        "encoding": "mapping",
        "key": "t_address",
        "label": "mapping(address => uint256)",
        "numberOfBytes": "32",
        "value": "t_uint256"
      },
      "t_mapping(t_uint256,t_address)": {
        "encoding": "mapping",
        "key": "t_uint256",
        "label": "mapping(uint256 => address)",
        "numberOfBytes": "32",
        "value": "t_address"
      },
      "t_mapping(t_uint256,t_uint256)": {
        "encoding": "mapping",
        "key": "t_uint256",
        "label": "mapping(uint256 => uint256)",
        "numberOfBytes": "32",
        "value": "t_uint256"
      },
      "t_string_storage": {
        "encoding": "bytes",
        "label": "string",
        "numberOfBytes": "32"
      },
      "t_uint256": {
        "encoding": "inplace",
        "label": "uint256",
        "numberOfBytes": "32"
      }
    }
  }
}